{
  "contractName": "MintTicket",
  "abi": [
    {
      "inputs": [],
      "stateMutability": "nonpayable",
      "type": "constructor"
    },
    {
      "anonymous": false,
      "inputs": [
        {
          "indexed": true,
          "internalType": "address",
          "name": "owner",
          "type": "address"
        },
        {
          "indexed": true,
          "internalType": "address",
          "name": "approved",
          "type": "address"
        },
        {
          "indexed": true,
          "internalType": "uint256",
          "name": "tokenId",
          "type": "uint256"
        }
      ],
      "name": "Approval",
      "type": "event"
    },
    {
      "anonymous": false,
      "inputs": [
        {
          "indexed": true,
          "internalType": "address",
          "name": "owner",
          "type": "address"
        },
        {
          "indexed": true,
          "internalType": "address",
          "name": "operator",
          "type": "address"
        },
        {
          "indexed": false,
          "internalType": "bool",
          "name": "approved",
          "type": "bool"
        }
      ],
      "name": "ApprovalForAll",
      "type": "event"
    },
    {
      "anonymous": false,
      "inputs": [
        {
          "indexed": false,
          "internalType": "uint256",
          "name": "_fromTokenId",
          "type": "uint256"
        },
        {
          "indexed": false,
          "internalType": "uint256",
          "name": "_toTokenId",
          "type": "uint256"
        }
      ],
      "name": "BatchMetadataUpdate",
      "type": "event"
    },
    {
      "anonymous": false,
      "inputs": [
        {
          "indexed": false,
          "internalType": "uint256",
          "name": "_tokenId",
          "type": "uint256"
        }
      ],
      "name": "MetadataUpdate",
      "type": "event"
    },
    {
      "anonymous": false,
      "inputs": [
        {
          "indexed": true,
          "internalType": "address",
          "name": "previousOwner",
          "type": "address"
        },
        {
          "indexed": true,
          "internalType": "address",
          "name": "newOwner",
          "type": "address"
        }
      ],
      "name": "OwnershipTransferred",
      "type": "event"
    },
    {
      "anonymous": false,
      "inputs": [
        {
          "indexed": true,
          "internalType": "address",
          "name": "from",
          "type": "address"
        },
        {
          "indexed": true,
          "internalType": "address",
          "name": "to",
          "type": "address"
        },
        {
          "indexed": true,
          "internalType": "uint256",
          "name": "tokenId",
          "type": "uint256"
        }
      ],
      "name": "Transfer",
      "type": "event"
    },
    {
      "inputs": [],
      "name": "MINT_PRICE",
      "outputs": [
        {
          "internalType": "uint256",
          "name": "",
          "type": "uint256"
        }
      ],
      "stateMutability": "view",
      "type": "function",
      "constant": true
    },
    {
      "inputs": [
        {
          "internalType": "address",
          "name": "to",
          "type": "address"
        },
        {
          "internalType": "uint256",
          "name": "tokenId",
          "type": "uint256"
        }
      ],
      "name": "approve",
      "outputs": [],
      "stateMutability": "nonpayable",
      "type": "function"
    },
    {
      "inputs": [
        {
          "internalType": "address",
          "name": "owner",
          "type": "address"
        }
      ],
      "name": "balanceOf",
      "outputs": [
        {
          "internalType": "uint256",
          "name": "",
          "type": "uint256"
        }
      ],
      "stateMutability": "view",
      "type": "function",
      "constant": true
    },
    {
      "inputs": [
        {
          "internalType": "uint256",
          "name": "tokenId",
          "type": "uint256"
        }
      ],
      "name": "getApproved",
      "outputs": [
        {
          "internalType": "address",
          "name": "",
          "type": "address"
        }
      ],
      "stateMutability": "view",
      "type": "function",
      "constant": true
    },
    {
      "inputs": [
        {
          "internalType": "address",
          "name": "owner",
          "type": "address"
        },
        {
          "internalType": "address",
          "name": "operator",
          "type": "address"
        }
      ],
      "name": "isApprovedForAll",
      "outputs": [
        {
          "internalType": "bool",
          "name": "",
          "type": "bool"
        }
      ],
      "stateMutability": "view",
      "type": "function",
      "constant": true
    },
    {
      "inputs": [],
      "name": "name",
      "outputs": [
        {
          "internalType": "string",
          "name": "",
          "type": "string"
        }
      ],
      "stateMutability": "view",
      "type": "function",
      "constant": true
    },
    {
      "inputs": [],
      "name": "owner",
      "outputs": [
        {
          "internalType": "address",
          "name": "",
          "type": "address"
        }
      ],
      "stateMutability": "view",
      "type": "function",
      "constant": true
    },
    {
      "inputs": [
        {
          "internalType": "uint256",
          "name": "tokenId",
          "type": "uint256"
        }
      ],
      "name": "ownerOf",
      "outputs": [
        {
          "internalType": "address",
          "name": "",
          "type": "address"
        }
      ],
      "stateMutability": "view",
      "type": "function",
      "constant": true
    },
    {
      "inputs": [],
      "name": "renounceOwnership",
      "outputs": [],
      "stateMutability": "nonpayable",
      "type": "function"
    },
    {
      "inputs": [
        {
          "internalType": "address",
          "name": "from",
          "type": "address"
        },
        {
          "internalType": "address",
          "name": "to",
          "type": "address"
        },
        {
          "internalType": "uint256",
          "name": "tokenId",
          "type": "uint256"
        }
      ],
      "name": "safeTransferFrom",
      "outputs": [],
      "stateMutability": "nonpayable",
      "type": "function"
    },
    {
      "inputs": [
        {
          "internalType": "address",
          "name": "from",
          "type": "address"
        },
        {
          "internalType": "address",
          "name": "to",
          "type": "address"
        },
        {
          "internalType": "uint256",
          "name": "tokenId",
          "type": "uint256"
        },
        {
          "internalType": "bytes",
          "name": "data",
          "type": "bytes"
        }
      ],
      "name": "safeTransferFrom",
      "outputs": [],
      "stateMutability": "nonpayable",
      "type": "function"
    },
    {
      "inputs": [
        {
          "internalType": "address",
          "name": "operator",
          "type": "address"
        },
        {
          "internalType": "bool",
          "name": "approved",
          "type": "bool"
        }
      ],
      "name": "setApprovalForAll",
      "outputs": [],
      "stateMutability": "nonpayable",
      "type": "function"
    },
    {
      "inputs": [
        {
          "internalType": "bytes4",
          "name": "interfaceId",
          "type": "bytes4"
        }
      ],
      "name": "supportsInterface",
      "outputs": [
        {
          "internalType": "bool",
          "name": "",
          "type": "bool"
        }
      ],
      "stateMutability": "view",
      "type": "function",
      "constant": true
    },
    {
      "inputs": [],
      "name": "symbol",
      "outputs": [
        {
          "internalType": "string",
          "name": "",
          "type": "string"
        }
      ],
      "stateMutability": "view",
      "type": "function",
      "constant": true
    },
    {
      "inputs": [
        {
          "internalType": "uint256",
          "name": "tokenId",
          "type": "uint256"
        }
      ],
      "name": "tokenURI",
      "outputs": [
        {
          "internalType": "string",
          "name": "",
          "type": "string"
        }
      ],
      "stateMutability": "view",
      "type": "function",
      "constant": true
    },
    {
      "inputs": [
        {
          "internalType": "address",
          "name": "from",
          "type": "address"
        },
        {
          "internalType": "address",
          "name": "to",
          "type": "address"
        },
        {
          "internalType": "uint256",
          "name": "tokenId",
          "type": "uint256"
        }
      ],
      "name": "transferFrom",
      "outputs": [],
      "stateMutability": "nonpayable",
      "type": "function"
    },
    {
      "inputs": [
        {
          "internalType": "address",
          "name": "newOwner",
          "type": "address"
        }
      ],
      "name": "transferOwnership",
      "outputs": [],
      "stateMutability": "nonpayable",
      "type": "function"
    },
    {
      "inputs": [
        {
          "internalType": "uint256",
          "name": "_price",
          "type": "uint256"
        }
      ],
      "name": "setMintPrice",
      "outputs": [],
      "stateMutability": "nonpayable",
      "type": "function"
    },
    {
      "inputs": [],
      "name": "mintNFTTicket",
      "outputs": [],
      "stateMutability": "payable",
      "type": "function",
      "payable": true
    },
    {
      "inputs": [],
      "name": "getLastMintedTokenId",
      "outputs": [
        {
          "internalType": "uint256",
          "name": "",
          "type": "uint256"
        }
      ],
      "stateMutability": "view",
      "type": "function",
      "constant": true
    }
  ],
  "bytecode": "0x6080604052662e2f6e5e1480006009553480156200001c57600080fd5b506040518060400160405280600d81526020017f5377696674205469636b657473000000000000000000000000000000000000008152506040518060400160405280600581526020017f535749465400000000000000000000000000000000000000000000000000000081525081600090816200009a91906200041d565b508060019081620000ac91906200041d565b505050620000cf620000c3620000d560201b60201c565b620000dd60201b60201c565b62000504565b600033905090565b6000600760009054906101000a900473ffffffffffffffffffffffffffffffffffffffff16905081600760006101000a81548173ffffffffffffffffffffffffffffffffffffffff021916908373ffffffffffffffffffffffffffffffffffffffff1602179055508173ffffffffffffffffffffffffffffffffffffffff168173ffffffffffffffffffffffffffffffffffffffff167f8be0079c531659141344cd1fd0a4f28419497f9722a3daafe3b4186f6b6457e060405160405180910390a35050565b600081519050919050565b7f4e487b7100000000000000000000000000000000000000000000000000000000600052604160045260246000fd5b7f4e487b7100000000000000000000000000000000000000000000000000000000600052602260045260246000fd5b600060028204905060018216806200022557607f821691505b6020821081036200023b576200023a620001dd565b5b50919050565b60008190508160005260206000209050919050565b60006020601f8301049050919050565b600082821b905092915050565b600060088302620002a57fffffffffffffffffffffffffffffffffffffffffffffffffffffffffffffffff8262000266565b620002b1868362000266565b95508019841693508086168417925050509392505050565b6000819050919050565b6000819050919050565b6000620002fe620002f8620002f284620002c9565b620002d3565b620002c9565b9050919050565b6000819050919050565b6200031a83620002dd565b62000332620003298262000305565b84845462000273565b825550505050565b600090565b620003496200033a565b620003568184846200030f565b505050565b5b818110156200037e57620003726000826200033f565b6001810190506200035c565b5050565b601f821115620003cd57620003978162000241565b620003a28462000256565b81016020851015620003b2578190505b620003ca620003c18562000256565b8301826200035b565b50505b505050565b600082821c905092915050565b6000620003f260001984600802620003d2565b1980831691505092915050565b60006200040d8383620003df565b9150826002028217905092915050565b6200042882620001a3565b67ffffffffffffffff811115620004445762000443620001ae565b5b6200045082546200020c565b6200045d82828562000382565b600060209050601f83116001811462000495576000841562000480578287015190505b6200048c8582620003ff565b865550620004fc565b601f198416620004a58662000241565b60005b82811015620004cf57848901518255600182019150602085019450602081019050620004a8565b86831015620004ef5784890151620004eb601f891682620003df565b8355505b6001600288020188555050505b505050505050565b61316280620005146000396000f3fe60806040526004361061011f5760003560e01c80637974e46a116100a0578063c002d23d11610064578063c002d23d146103b2578063c87b56dd146103dd578063e985e9c51461041a578063f2fde38b14610457578063f4a0a528146104805761011f565b80637974e46a146102df5780638da5cb5b1461030a57806395d89b4114610335578063a22cb46514610360578063b88d4fde146103895761011f565b806323b872dd116100e757806323b872dd146101fc57806342842e0e146102255780636352211e1461024e57806370a082311461028b578063715018a6146102c85761011f565b806301ffc9a71461012457806306fdde0314610161578063081812fc1461018c578063095ea7b3146101c95780631d22124c146101f2575b600080fd5b34801561013057600080fd5b5061014b60048036038101906101469190611e98565b6104a9565b6040516101589190611ee0565b60405180910390f35b34801561016d57600080fd5b5061017661050a565b6040516101839190611f8b565b60405180910390f35b34801561019857600080fd5b506101b360048036038101906101ae9190611fe3565b61059c565b6040516101c09190612051565b60405180910390f35b3480156101d557600080fd5b506101f060048036038101906101eb9190612098565b6105e2565b005b6101fa6106f9565b005b34801561020857600080fd5b50610223600480360381019061021e91906120d8565b61078c565b005b34801561023157600080fd5b5061024c600480360381019061024791906120d8565b6107ec565b005b34801561025a57600080fd5b5061027560048036038101906102709190611fe3565b61080c565b6040516102829190612051565b60405180910390f35b34801561029757600080fd5b506102b260048036038101906102ad919061212b565b610892565b6040516102bf9190612167565b60405180910390f35b3480156102d457600080fd5b506102dd610949565b005b3480156102eb57600080fd5b506102f461095d565b6040516103019190612167565b60405180910390f35b34801561031657600080fd5b5061031f6109b7565b60405161032c9190612051565b60405180910390f35b34801561034157600080fd5b5061034a6109e1565b6040516103579190611f8b565b60405180910390f35b34801561036c57600080fd5b50610387600480360381019061038291906121ae565b610a73565b005b34801561039557600080fd5b506103b060048036038101906103ab9190612323565b610a89565b005b3480156103be57600080fd5b506103c7610aeb565b6040516103d49190612167565b60405180910390f35b3480156103e957600080fd5b5061040460048036038101906103ff9190611fe3565b610af1565b6040516104119190611f8b565b60405180910390f35b34801561042657600080fd5b50610441600480360381019061043c91906123a6565b610c03565b60405161044e9190611ee0565b60405180910390f35b34801561046357600080fd5b5061047e6004803603810190610479919061212b565b610c97565b005b34801561048c57600080fd5b506104a760048036038101906104a29190611fe3565b610d1a565b005b6000634906490660e01b7bffffffffffffffffffffffffffffffffffffffffffffffffffffffff1916827bffffffffffffffffffffffffffffffffffffffffffffffffffffffff19161480610503575061050282610d2c565b5b9050919050565b60606000805461051990612415565b80601f016020809104026020016040519081016040528092919081815260200182805461054590612415565b80156105925780601f1061056757610100808354040283529160200191610592565b820191906000526020600020905b81548152906001019060200180831161057557829003601f168201915b5050505050905090565b60006105a782610e0e565b6004600083815260200190815260200160002060009054906101000a900473ffffffffffffffffffffffffffffffffffffffff169050919050565b60006105ed8261080c565b90508073ffffffffffffffffffffffffffffffffffffffff168373ffffffffffffffffffffffffffffffffffffffff160361065d576040517f08c379a0000000000000000000000000000000000000000000000000000000008152600401610654906124b8565b60405180910390fd5b8073ffffffffffffffffffffffffffffffffffffffff1661067c610e59565b73ffffffffffffffffffffffffffffffffffffffff1614806106ab57506106aa816106a5610e59565b610c03565b5b6106ea576040517f08c379a00000000000000000000000000000000000000000000000000000000081526004016106e19061254a565b60405180910390fd5b6106f48383610e61565b505050565b60095434101561073e576040517f08c379a0000000000000000000000000000000000000000000000000000000008152600401610735906125b6565b60405180910390fd5b6000600854905061074f3382610f1a565b610771816040518060600160405280603581526020016130f860359139610f38565b6008600081548092919061078490612605565b919050555050565b61079d610797610e59565b82610fdc565b6107dc576040517f08c379a00000000000000000000000000000000000000000000000000000000081526004016107d3906126bf565b60405180910390fd5b6107e7838383611071565b505050565b61080783838360405180602001604052806000815250610a89565b505050565b6000806108188361136a565b9050600073ffffffffffffffffffffffffffffffffffffffff168173ffffffffffffffffffffffffffffffffffffffff1603610889576040517f08c379a00000000000000000000000000000000000000000000000000000000081526004016108809061272b565b60405180910390fd5b80915050919050565b60008073ffffffffffffffffffffffffffffffffffffffff168273ffffffffffffffffffffffffffffffffffffffff1603610902576040517f08c379a00000000000000000000000000000000000000000000000000000000081526004016108f9906127bd565b60405180910390fd5b600360008373ffffffffffffffffffffffffffffffffffffffff1673ffffffffffffffffffffffffffffffffffffffff168152602001908152602001600020549050919050565b6109516113a7565b61095b6000611425565b565b600080600854116109a3576040517f08c379a000000000000000000000000000000000000000000000000000000000815260040161099a90612829565b60405180910390fd5b60016008546109b29190612849565b905090565b6000600760009054906101000a900473ffffffffffffffffffffffffffffffffffffffff16905090565b6060600180546109f090612415565b80601f0160208091040260200160405190810160405280929190818152602001828054610a1c90612415565b8015610a695780601f10610a3e57610100808354040283529160200191610a69565b820191906000526020600020905b815481529060010190602001808311610a4c57829003601f168201915b5050505050905090565b610a85610a7e610e59565b83836114eb565b5050565b610a9a610a94610e59565b83610fdc565b610ad9576040517f08c379a0000000000000000000000000000000000000000000000000000000008152600401610ad0906126bf565b60405180910390fd5b610ae584848484611657565b50505050565b60095481565b6060610afc82610e0e565b6000600660008481526020019081526020016000208054610b1c90612415565b80601f0160208091040260200160405190810160405280929190818152602001828054610b4890612415565b8015610b955780601f10610b6a57610100808354040283529160200191610b95565b820191906000526020600020905b815481529060010190602001808311610b7857829003601f168201915b505050505090506000610ba66116b3565b90506000815103610bbb578192505050610bfe565b600082511115610bf0578082604051602001610bd89291906128b9565b60405160208183030381529060405292505050610bfe565b610bf9846116ca565b925050505b919050565b6000600560008473ffffffffffffffffffffffffffffffffffffffff1673ffffffffffffffffffffffffffffffffffffffff16815260200190815260200160002060008373ffffffffffffffffffffffffffffffffffffffff1673ffffffffffffffffffffffffffffffffffffffff16815260200190815260200160002060009054906101000a900460ff16905092915050565b610c9f6113a7565b600073ffffffffffffffffffffffffffffffffffffffff168173ffffffffffffffffffffffffffffffffffffffff1603610d0e576040517f08c379a0000000000000000000000000000000000000000000000000000000008152600401610d059061294f565b60405180910390fd5b610d1781611425565b50565b610d226113a7565b8060098190555050565b60007f80ac58cd000000000000000000000000000000000000000000000000000000007bffffffffffffffffffffffffffffffffffffffffffffffffffffffff1916827bffffffffffffffffffffffffffffffffffffffffffffffffffffffff19161480610df757507f5b5e139f000000000000000000000000000000000000000000000000000000007bffffffffffffffffffffffffffffffffffffffffffffffffffffffff1916827bffffffffffffffffffffffffffffffffffffffffffffffffffffffff1916145b80610e075750610e0682611732565b5b9050919050565b610e178161179c565b610e56576040517f08c379a0000000000000000000000000000000000000000000000000000000008152600401610e4d9061272b565b60405180910390fd5b50565b600033905090565b816004600083815260200190815260200160002060006101000a81548173ffffffffffffffffffffffffffffffffffffffff021916908373ffffffffffffffffffffffffffffffffffffffff160217905550808273ffffffffffffffffffffffffffffffffffffffff16610ed48361080c565b73ffffffffffffffffffffffffffffffffffffffff167f8c5be1e5ebec7d5bd14f71427d1e84f3dd0314c0f7b2291e5b200ac8c7c3b92560405160405180910390a45050565b610f348282604051806020016040528060008152506117dd565b5050565b610f418261179c565b610f80576040517f08c379a0000000000000000000000000000000000000000000000000000000008152600401610f77906129e1565b60405180910390fd5b80600660008481526020019081526020016000209081610fa09190612bad565b507ff8e1a15aba9398e019f0b49df1a4fde98ee17ae345cb5f6b5e2c27f5033e8ce782604051610fd09190612167565b60405180910390a15050565b600080610fe88361080c565b90508073ffffffffffffffffffffffffffffffffffffffff168473ffffffffffffffffffffffffffffffffffffffff16148061102a57506110298185610c03565b5b8061106857508373ffffffffffffffffffffffffffffffffffffffff166110508461059c565b73ffffffffffffffffffffffffffffffffffffffff16145b91505092915050565b8273ffffffffffffffffffffffffffffffffffffffff166110918261080c565b73ffffffffffffffffffffffffffffffffffffffff16146110e7576040517f08c379a00000000000000000000000000000000000000000000000000000000081526004016110de90612cf1565b60405180910390fd5b600073ffffffffffffffffffffffffffffffffffffffff168273ffffffffffffffffffffffffffffffffffffffff1603611156576040517f08c379a000000000000000000000000000000000000000000000000000000000815260040161114d90612d83565b60405180910390fd5b6111638383836001611838565b8273ffffffffffffffffffffffffffffffffffffffff166111838261080c565b73ffffffffffffffffffffffffffffffffffffffff16146111d9576040517f08c379a00000000000000000000000000000000000000000000000000000000081526004016111d090612cf1565b60405180910390fd5b6004600082815260200190815260200160002060006101000a81549073ffffffffffffffffffffffffffffffffffffffff02191690556001600360008573ffffffffffffffffffffffffffffffffffffffff1673ffffffffffffffffffffffffffffffffffffffff168152602001908152602001600020600082825403925050819055506001600360008473ffffffffffffffffffffffffffffffffffffffff1673ffffffffffffffffffffffffffffffffffffffff16815260200190815260200160002060008282540192505081905550816002600083815260200190815260200160002060006101000a81548173ffffffffffffffffffffffffffffffffffffffff021916908373ffffffffffffffffffffffffffffffffffffffff160217905550808273ffffffffffffffffffffffffffffffffffffffff168473ffffffffffffffffffffffffffffffffffffffff167fddf252ad1be2c89b69c2b068fc378daa952ba7f163c4a11628f55a4df523b3ef60405160405180910390a4611365838383600161183e565b505050565b60006002600083815260200190815260200160002060009054906101000a900473ffffffffffffffffffffffffffffffffffffffff169050919050565b6113af610e59565b73ffffffffffffffffffffffffffffffffffffffff166113cd6109b7565b73ffffffffffffffffffffffffffffffffffffffff1614611423576040517f08c379a000000000000000000000000000000000000000000000000000000000815260040161141a90612def565b60405180910390fd5b565b6000600760009054906101000a900473ffffffffffffffffffffffffffffffffffffffff16905081600760006101000a81548173ffffffffffffffffffffffffffffffffffffffff021916908373ffffffffffffffffffffffffffffffffffffffff1602179055508173ffffffffffffffffffffffffffffffffffffffff168173ffffffffffffffffffffffffffffffffffffffff167f8be0079c531659141344cd1fd0a4f28419497f9722a3daafe3b4186f6b6457e060405160405180910390a35050565b8173ffffffffffffffffffffffffffffffffffffffff168373ffffffffffffffffffffffffffffffffffffffff1603611559576040517f08c379a000000000000000000000000000000000000000000000000000000000815260040161155090612e5b565b60405180910390fd5b80600560008573ffffffffffffffffffffffffffffffffffffffff1673ffffffffffffffffffffffffffffffffffffffff16815260200190815260200160002060008473ffffffffffffffffffffffffffffffffffffffff1673ffffffffffffffffffffffffffffffffffffffff16815260200190815260200160002060006101000a81548160ff0219169083151502179055508173ffffffffffffffffffffffffffffffffffffffff168373ffffffffffffffffffffffffffffffffffffffff167f17307eab39ab6107e8899845ad3d59bd9653f200f220920489ca2b5937696c318360405161164a9190611ee0565b60405180910390a3505050565b611662848484611071565b61166e84848484611844565b6116ad576040517f08c379a00000000000000000000000000000000000000000000000000000000081526004016116a490612eed565b60405180910390fd5b50505050565b606060405180602001604052806000815250905090565b60606116d582610e0e565b60006116df6116b3565b905060008151116116ff576040518060200160405280600081525061172a565b80611709846119cb565b60405160200161171a9291906128b9565b6040516020818303038152906040525b915050919050565b60007f01ffc9a7000000000000000000000000000000000000000000000000000000007bffffffffffffffffffffffffffffffffffffffffffffffffffffffff1916827bffffffffffffffffffffffffffffffffffffffffffffffffffffffff1916149050919050565b60008073ffffffffffffffffffffffffffffffffffffffff166117be8361136a565b73ffffffffffffffffffffffffffffffffffffffff1614159050919050565b6117e78383611a99565b6117f46000848484611844565b611833576040517f08c379a000000000000000000000000000000000000000000000000000000000815260040161182a90612eed565b60405180910390fd5b505050565b50505050565b50505050565b60006118658473ffffffffffffffffffffffffffffffffffffffff16611cb6565b156119be578373ffffffffffffffffffffffffffffffffffffffff1663150b7a0261188e610e59565b8786866040518563ffffffff1660e01b81526004016118b09493929190612f62565b6020604051808303816000875af19250505080156118ec57506040513d601f19601f820116820180604052508101906118e99190612fc3565b60015b61196e573d806000811461191c576040519150601f19603f3d011682016040523d82523d6000602084013e611921565b606091505b506000815103611966576040517f08c379a000000000000000000000000000000000000000000000000000000000815260040161195d90612eed565b60405180910390fd5b805181602001fd5b63150b7a0260e01b7bffffffffffffffffffffffffffffffffffffffffffffffffffffffff1916817bffffffffffffffffffffffffffffffffffffffffffffffffffffffff1916149150506119c3565b600190505b949350505050565b6060600060016119da84611cd9565b01905060008167ffffffffffffffff8111156119f9576119f86121f8565b5b6040519080825280601f01601f191660200182016040528015611a2b5781602001600182028036833780820191505090505b509050600082602001820190505b600115611a8e578080600190039150507f3031323334353637383961626364656600000000000000000000000000000000600a86061a8153600a8581611a8257611a81612ff0565b5b04945060008503611a39575b819350505050919050565b600073ffffffffffffffffffffffffffffffffffffffff168273ffffffffffffffffffffffffffffffffffffffff1603611b08576040517f08c379a0000000000000000000000000000000000000000000000000000000008152600401611aff9061306b565b60405180910390fd5b611b118161179c565b15611b51576040517f08c379a0000000000000000000000000000000000000000000000000000000008152600401611b48906130d7565b60405180910390fd5b611b5f600083836001611838565b611b688161179c565b15611ba8576040517f08c379a0000000000000000000000000000000000000000000000000000000008152600401611b9f906130d7565b60405180910390fd5b6001600360008473ffffffffffffffffffffffffffffffffffffffff1673ffffffffffffffffffffffffffffffffffffffff16815260200190815260200160002060008282540192505081905550816002600083815260200190815260200160002060006101000a81548173ffffffffffffffffffffffffffffffffffffffff021916908373ffffffffffffffffffffffffffffffffffffffff160217905550808273ffffffffffffffffffffffffffffffffffffffff16600073ffffffffffffffffffffffffffffffffffffffff167fddf252ad1be2c89b69c2b068fc378daa952ba7f163c4a11628f55a4df523b3ef60405160405180910390a4611cb260008383600161183e565b5050565b6000808273ffffffffffffffffffffffffffffffffffffffff163b119050919050565b600080600090507a184f03e93ff9f4daa797ed6e38ed64bf6a1f0100000000000000008310611d37577a184f03e93ff9f4daa797ed6e38ed64bf6a1f0100000000000000008381611d2d57611d2c612ff0565b5b0492506040810190505b6d04ee2d6d415b85acef81000000008310611d74576d04ee2d6d415b85acef81000000008381611d6a57611d69612ff0565b5b0492506020810190505b662386f26fc100008310611da357662386f26fc100008381611d9957611d98612ff0565b5b0492506010810190505b6305f5e1008310611dcc576305f5e1008381611dc257611dc1612ff0565b5b0492506008810190505b6127108310611df1576127108381611de757611de6612ff0565b5b0492506004810190505b60648310611e145760648381611e0a57611e09612ff0565b5b0492506002810190505b600a8310611e23576001810190505b80915050919050565b6000604051905090565b600080fd5b600080fd5b60007fffffffff0000000000000000000000000000000000000000000000000000000082169050919050565b611e7581611e40565b8114611e8057600080fd5b50565b600081359050611e9281611e6c565b92915050565b600060208284031215611eae57611ead611e36565b5b6000611ebc84828501611e83565b91505092915050565b60008115159050919050565b611eda81611ec5565b82525050565b6000602082019050611ef56000830184611ed1565b92915050565b600081519050919050565b600082825260208201905092915050565b60005b83811015611f35578082015181840152602081019050611f1a565b60008484015250505050565b6000601f19601f8301169050919050565b6000611f5d82611efb565b611f678185611f06565b9350611f77818560208601611f17565b611f8081611f41565b840191505092915050565b60006020820190508181036000830152611fa58184611f52565b905092915050565b6000819050919050565b611fc081611fad565b8114611fcb57600080fd5b50565b600081359050611fdd81611fb7565b92915050565b600060208284031215611ff957611ff8611e36565b5b600061200784828501611fce565b91505092915050565b600073ffffffffffffffffffffffffffffffffffffffff82169050919050565b600061203b82612010565b9050919050565b61204b81612030565b82525050565b60006020820190506120666000830184612042565b92915050565b61207581612030565b811461208057600080fd5b50565b6000813590506120928161206c565b92915050565b600080604083850312156120af576120ae611e36565b5b60006120bd85828601612083565b92505060206120ce85828601611fce565b9150509250929050565b6000806000606084860312156120f1576120f0611e36565b5b60006120ff86828701612083565b935050602061211086828701612083565b925050604061212186828701611fce565b9150509250925092565b60006020828403121561214157612140611e36565b5b600061214f84828501612083565b91505092915050565b61216181611fad565b82525050565b600060208201905061217c6000830184612158565b92915050565b61218b81611ec5565b811461219657600080fd5b50565b6000813590506121a881612182565b92915050565b600080604083850312156121c5576121c4611e36565b5b60006121d385828601612083565b92505060206121e485828601612199565b9150509250929050565b600080fd5b600080fd5b7f4e487b7100000000000000000000000000000000000000000000000000000000600052604160045260246000fd5b61223082611f41565b810181811067ffffffffffffffff8211171561224f5761224e6121f8565b5b80604052505050565b6000612262611e2c565b905061226e8282612227565b919050565b600067ffffffffffffffff82111561228e5761228d6121f8565b5b61229782611f41565b9050602081019050919050565b82818337600083830152505050565b60006122c66122c184612273565b612258565b9050828152602081018484840111156122e2576122e16121f3565b5b6122ed8482856122a4565b509392505050565b600082601f83011261230a576123096121ee565b5b813561231a8482602086016122b3565b91505092915050565b6000806000806080858703121561233d5761233c611e36565b5b600061234b87828801612083565b945050602061235c87828801612083565b935050604061236d87828801611fce565b925050606085013567ffffffffffffffff81111561238e5761238d611e3b565b5b61239a878288016122f5565b91505092959194509250565b600080604083850312156123bd576123bc611e36565b5b60006123cb85828601612083565b92505060206123dc85828601612083565b9150509250929050565b7f4e487b7100000000000000000000000000000000000000000000000000000000600052602260045260246000fd5b6000600282049050600182168061242d57607f821691505b6020821081036124405761243f6123e6565b5b50919050565b7f4552433732313a20617070726f76616c20746f2063757272656e74206f776e6560008201527f7200000000000000000000000000000000000000000000000000000000000000602082015250565b60006124a2602183611f06565b91506124ad82612446565b604082019050919050565b600060208201905081810360008301526124d181612495565b9050919050565b7f4552433732313a20617070726f76652063616c6c6572206973206e6f7420746f60008201527f6b656e206f776e6572206f7220617070726f76656420666f7220616c6c000000602082015250565b6000612534603d83611f06565b915061253f826124d8565b604082019050919050565b6000602082019050818103600083015261256381612527565b9050919050565b7f496e73756666696369656e74207061796d656e74000000000000000000000000600082015250565b60006125a0601483611f06565b91506125ab8261256a565b602082019050919050565b600060208201905081810360008301526125cf81612593565b9050919050565b7f4e487b7100000000000000000000000000000000000000000000000000000000600052601160045260246000fd5b600061261082611fad565b91507fffffffffffffffffffffffffffffffffffffffffffffffffffffffffffffffff8203612642576126416125d6565b5b600182019050919050565b7f4552433732313a2063616c6c6572206973206e6f7420746f6b656e206f776e6560008201527f72206f7220617070726f76656400000000000000000000000000000000000000602082015250565b60006126a9602d83611f06565b91506126b48261264d565b604082019050919050565b600060208201905081810360008301526126d88161269c565b9050919050565b7f4552433732313a20696e76616c696420746f6b656e2049440000000000000000600082015250565b6000612715601883611f06565b9150612720826126df565b602082019050919050565b6000602082019050818103600083015261274481612708565b9050919050565b7f4552433732313a2061646472657373207a65726f206973206e6f74206120766160008201527f6c6964206f776e65720000000000000000000000000000000000000000000000602082015250565b60006127a7602983611f06565b91506127b28261274b565b604082019050919050565b600060208201905081810360008301526127d68161279a565b9050919050565b7f4e6f207469636b657473206d696e746564207965740000000000000000000000600082015250565b6000612813601583611f06565b915061281e826127dd565b602082019050919050565b6000602082019050818103600083015261284281612806565b9050919050565b600061285482611fad565b915061285f83611fad565b9250828203905081811115612877576128766125d6565b5b92915050565b600081905092915050565b600061289382611efb565b61289d818561287d565b93506128ad818560208601611f17565b80840191505092915050565b60006128c58285612888565b91506128d18284612888565b91508190509392505050565b7f4f776e61626c653a206e6577206f776e657220697320746865207a65726f206160008201527f6464726573730000000000000000000000000000000000000000000000000000602082015250565b6000612939602683611f06565b9150612944826128dd565b604082019050919050565b600060208201905081810360008301526129688161292c565b9050919050565b7f45524337323155524953746f726167653a2055524920736574206f66206e6f6e60008201527f6578697374656e7420746f6b656e000000000000000000000000000000000000602082015250565b60006129cb602e83611f06565b91506129d68261296f565b604082019050919050565b600060208201905081810360008301526129fa816129be565b9050919050565b60008190508160005260206000209050919050565b60006020601f8301049050919050565b600082821b905092915050565b600060088302612a637fffffffffffffffffffffffffffffffffffffffffffffffffffffffffffffffff82612a26565b612a6d8683612a26565b95508019841693508086168417925050509392505050565b6000819050919050565b6000612aaa612aa5612aa084611fad565b612a85565b611fad565b9050919050565b6000819050919050565b612ac483612a8f565b612ad8612ad082612ab1565b848454612a33565b825550505050565b600090565b612aed612ae0565b612af8818484612abb565b505050565b5b81811015612b1c57612b11600082612ae5565b600181019050612afe565b5050565b601f821115612b6157612b3281612a01565b612b3b84612a16565b81016020851015612b4a578190505b612b5e612b5685612a16565b830182612afd565b50505b505050565b600082821c905092915050565b6000612b8460001984600802612b66565b1980831691505092915050565b6000612b9d8383612b73565b9150826002028217905092915050565b612bb682611efb565b67ffffffffffffffff811115612bcf57612bce6121f8565b5b612bd98254612415565b612be4828285612b20565b600060209050601f831160018114612c175760008415612c05578287015190505b612c0f8582612b91565b865550612c77565b601f198416612c2586612a01565b60005b82811015612c4d57848901518255600182019150602085019450602081019050612c28565b86831015612c6a5784890151612c66601f891682612b73565b8355505b6001600288020188555050505b505050505050565b7f4552433732313a207472616e736665722066726f6d20696e636f72726563742060008201527f6f776e6572000000000000000000000000000000000000000000000000000000602082015250565b6000612cdb602583611f06565b9150612ce682612c7f565b604082019050919050565b60006020820190508181036000830152612d0a81612cce565b9050919050565b7f4552433732313a207472616e7366657220746f20746865207a65726f2061646460008201527f7265737300000000000000000000000000000000000000000000000000000000602082015250565b6000612d6d602483611f06565b9150612d7882612d11565b604082019050919050565b60006020820190508181036000830152612d9c81612d60565b9050919050565b7f4f776e61626c653a2063616c6c6572206973206e6f7420746865206f776e6572600082015250565b6000612dd9602083611f06565b9150612de482612da3565b602082019050919050565b60006020820190508181036000830152612e0881612dcc565b9050919050565b7f4552433732313a20617070726f766520746f2063616c6c657200000000000000600082015250565b6000612e45601983611f06565b9150612e5082612e0f565b602082019050919050565b60006020820190508181036000830152612e7481612e38565b9050919050565b7f4552433732313a207472616e7366657220746f206e6f6e20455243373231526560008201527f63656976657220696d706c656d656e7465720000000000000000000000000000602082015250565b6000612ed7603283611f06565b9150612ee282612e7b565b604082019050919050565b60006020820190508181036000830152612f0681612eca565b9050919050565b600081519050919050565b600082825260208201905092915050565b6000612f3482612f0d565b612f3e8185612f18565b9350612f4e818560208601611f17565b612f5781611f41565b840191505092915050565b6000608082019050612f776000830187612042565b612f846020830186612042565b612f916040830185612158565b8181036060830152612fa38184612f29565b905095945050505050565b600081519050612fbd81611e6c565b92915050565b600060208284031215612fd957612fd8611e36565b5b6000612fe784828501612fae565b91505092915050565b7f4e487b7100000000000000000000000000000000000000000000000000000000600052601260045260246000fd5b7f4552433732313a206d696e7420746f20746865207a65726f2061646472657373600082015250565b6000613055602083611f06565b91506130608261301f565b602082019050919050565b6000602082019050818103600083015261308481613048565b9050919050565b7f4552433732313a20746f6b656e20616c7265616479206d696e74656400000000600082015250565b60006130c1601c83611f06565b91506130cc8261308b565b602082019050919050565b600060208201905081810360008301526130f0816130b4565b905091905056fe697066733a2f2f516d636f71354e7962514136384c437a4b684158665373566668726f756a47696e45337036416e724135655a7142a2646970667358221220c2a2914faaf3f923d1b6287c869847cb86447122a4fd8c766195a7d0a1b6952464736f6c63430008110033",
  "immutableReferences": {},
  "source": "// SPDX-License-Identifier: UNLICENSED\n\npragma solidity ^0.8.17;\n\nimport \"@openzeppelin/contracts/token/ERC721/extensions/ERC721URIStorage.sol\";\nimport \"@openzeppelin/contracts/access/Ownable.sol\";\n\ncontract MintTicket is ERC721URIStorage, Ownable {\n    // Counter to keep track of minted tickets.\n    uint256 private mintedTicketCount;\n\n    // Price of each mint\n    uint256 public MINT_PRICE = 0.013 ether;\n\n    // We need to pass the name of our NFTs token and its symbol.\n    constructor() ERC721(\"Swift Tickets\", \"SWIFT\") {}\n\n    function setMintPrice(uint256 _price) external onlyOwner {\n        MINT_PRICE = _price;\n    }\n\n    // A function our user will hit to get their NFT.\n    function mintNFTTicket() public payable {\n        require(msg.value >= MINT_PRICE, \"Insufficient payment\");\n\n        // Get the current tokenId, this starts at 0.\n        uint256 newTicketId = mintedTicketCount;\n\n        // Actually mint the NFT to the sender using msg.sender.\n        _safeMint(msg.sender, newTicketId);\n\n        // Return the NFT's metadata\n        _setTokenURI(\n            newTicketId,\n            \"ipfs://Qmcoq5NybQA68LCzKhAXfSsVfhroujGinE3p6AnrA5eZqB\"\n        );\n\n        // Increment counter when next NFT ticket is minted\n        mintedTicketCount++;\n    }\n\n    function getLastMintedTokenId() public view returns (uint256) {\n        require(mintedTicketCount > 0, \"No tickets minted yet\");\n        return mintedTicketCount - 1;\n    }\n}",
  "sourcePath": "/Users/matt_wong/Desktop/swift-tickets-navh/blockchain/contracts/MintTicket.sol",
  "compiler": {
    "name": "solc",
    "version": "0.8.17+commit.8df45f5f.Emscripten.clang"
  },
  "schemaVersion": "3.4.12",
  "updatedAt": "2023-08-21T22:40:37.801Z",
  "networkType": "ethereum",
  "devdoc": {
    "kind": "dev",
    "methods": {
      "approve(address,uint256)": {
        "details": "See {IERC721-approve}."
      },
      "balanceOf(address)": {
        "details": "See {IERC721-balanceOf}."
      },
      "getApproved(uint256)": {
        "details": "See {IERC721-getApproved}."
      },
      "isApprovedForAll(address,address)": {
        "details": "See {IERC721-isApprovedForAll}."
      },
      "name()": {
        "details": "See {IERC721Metadata-name}."
      },
      "owner()": {
        "details": "Returns the address of the current owner."
      },
      "ownerOf(uint256)": {
        "details": "See {IERC721-ownerOf}."
      },
      "renounceOwnership()": {
        "details": "Leaves the contract without owner. It will not be possible to call `onlyOwner` functions. Can only be called by the current owner. NOTE: Renouncing ownership will leave the contract without an owner, thereby disabling any functionality that is only available to the owner."
      },
      "safeTransferFrom(address,address,uint256)": {
        "details": "See {IERC721-safeTransferFrom}."
      },
      "safeTransferFrom(address,address,uint256,bytes)": {
        "details": "See {IERC721-safeTransferFrom}."
      },
      "setApprovalForAll(address,bool)": {
        "details": "See {IERC721-setApprovalForAll}."
      },
      "supportsInterface(bytes4)": {
        "details": "See {IERC165-supportsInterface}"
      },
      "symbol()": {
        "details": "See {IERC721Metadata-symbol}."
      },
      "tokenURI(uint256)": {
        "details": "See {IERC721Metadata-tokenURI}."
      },
      "transferFrom(address,address,uint256)": {
        "details": "See {IERC721-transferFrom}."
      },
      "transferOwnership(address)": {
        "details": "Transfers ownership of the contract to a new account (`newOwner`). Can only be called by the current owner."
      }
    },
    "version": 1
  },
  "userdoc": {
    "kind": "user",
    "methods": {},
    "version": 1
  }
}