{
  "contractName": "MintTicket",
  "abi": [
    {
      "inputs": [],
      "stateMutability": "nonpayable",
      "type": "constructor"
    },
    {
      "anonymous": false,
      "inputs": [
        {
          "indexed": true,
          "internalType": "address",
          "name": "owner",
          "type": "address"
        },
        {
          "indexed": true,
          "internalType": "address",
          "name": "approved",
          "type": "address"
        },
        {
          "indexed": true,
          "internalType": "uint256",
          "name": "tokenId",
          "type": "uint256"
        }
      ],
      "name": "Approval",
      "type": "event"
    },
    {
      "anonymous": false,
      "inputs": [
        {
          "indexed": true,
          "internalType": "address",
          "name": "owner",
          "type": "address"
        },
        {
          "indexed": true,
          "internalType": "address",
          "name": "operator",
          "type": "address"
        },
        {
          "indexed": false,
          "internalType": "bool",
          "name": "approved",
          "type": "bool"
        }
      ],
      "name": "ApprovalForAll",
      "type": "event"
    },
    {
      "anonymous": false,
      "inputs": [
        {
          "indexed": false,
          "internalType": "uint256",
          "name": "_fromTokenId",
          "type": "uint256"
        },
        {
          "indexed": false,
          "internalType": "uint256",
          "name": "_toTokenId",
          "type": "uint256"
        }
      ],
      "name": "BatchMetadataUpdate",
      "type": "event"
    },
    {
      "anonymous": false,
      "inputs": [
        {
          "indexed": false,
          "internalType": "uint256",
          "name": "_tokenId",
          "type": "uint256"
        }
      ],
      "name": "MetadataUpdate",
      "type": "event"
    },
    {
      "anonymous": false,
      "inputs": [
        {
          "indexed": true,
          "internalType": "address",
          "name": "previousOwner",
          "type": "address"
        },
        {
          "indexed": true,
          "internalType": "address",
          "name": "newOwner",
          "type": "address"
        }
      ],
      "name": "OwnershipTransferred",
      "type": "event"
    },
    {
      "anonymous": false,
      "inputs": [
        {
          "indexed": true,
          "internalType": "address",
          "name": "from",
          "type": "address"
        },
        {
          "indexed": true,
          "internalType": "address",
          "name": "to",
          "type": "address"
        },
        {
          "indexed": true,
          "internalType": "uint256",
          "name": "tokenId",
          "type": "uint256"
        }
      ],
      "name": "Transfer",
      "type": "event"
    },
    {
      "inputs": [],
      "name": "MINT_PRICE",
      "outputs": [
        {
          "internalType": "uint256",
          "name": "",
          "type": "uint256"
        }
      ],
      "stateMutability": "view",
      "type": "function",
      "constant": true
    },
    {
      "inputs": [
        {
          "internalType": "address",
          "name": "to",
          "type": "address"
        },
        {
          "internalType": "uint256",
          "name": "tokenId",
          "type": "uint256"
        }
      ],
      "name": "approve",
      "outputs": [],
      "stateMutability": "nonpayable",
      "type": "function"
    },
    {
      "inputs": [
        {
          "internalType": "address",
          "name": "owner",
          "type": "address"
        }
      ],
      "name": "balanceOf",
      "outputs": [
        {
          "internalType": "uint256",
          "name": "",
          "type": "uint256"
        }
      ],
      "stateMutability": "view",
      "type": "function",
      "constant": true
    },
    {
      "inputs": [
        {
          "internalType": "uint256",
          "name": "tokenId",
          "type": "uint256"
        }
      ],
      "name": "getApproved",
      "outputs": [
        {
          "internalType": "address",
          "name": "",
          "type": "address"
        }
      ],
      "stateMutability": "view",
      "type": "function",
      "constant": true
    },
    {
      "inputs": [
        {
          "internalType": "address",
          "name": "owner",
          "type": "address"
        },
        {
          "internalType": "address",
          "name": "operator",
          "type": "address"
        }
      ],
      "name": "isApprovedForAll",
      "outputs": [
        {
          "internalType": "bool",
          "name": "",
          "type": "bool"
        }
      ],
      "stateMutability": "view",
      "type": "function",
      "constant": true
    },
    {
      "inputs": [],
      "name": "name",
      "outputs": [
        {
          "internalType": "string",
          "name": "",
          "type": "string"
        }
      ],
      "stateMutability": "view",
      "type": "function",
      "constant": true
    },
    {
      "inputs": [],
      "name": "owner",
      "outputs": [
        {
          "internalType": "address",
          "name": "",
          "type": "address"
        }
      ],
      "stateMutability": "view",
      "type": "function",
      "constant": true
    },
    {
      "inputs": [
        {
          "internalType": "uint256",
          "name": "tokenId",
          "type": "uint256"
        }
      ],
      "name": "ownerOf",
      "outputs": [
        {
          "internalType": "address",
          "name": "",
          "type": "address"
        }
      ],
      "stateMutability": "view",
      "type": "function",
      "constant": true
    },
    {
      "inputs": [],
      "name": "renounceOwnership",
      "outputs": [],
      "stateMutability": "nonpayable",
      "type": "function"
    },
    {
      "inputs": [
        {
          "internalType": "address",
          "name": "from",
          "type": "address"
        },
        {
          "internalType": "address",
          "name": "to",
          "type": "address"
        },
        {
          "internalType": "uint256",
          "name": "tokenId",
          "type": "uint256"
        }
      ],
      "name": "safeTransferFrom",
      "outputs": [],
      "stateMutability": "nonpayable",
      "type": "function"
    },
    {
      "inputs": [
        {
          "internalType": "address",
          "name": "from",
          "type": "address"
        },
        {
          "internalType": "address",
          "name": "to",
          "type": "address"
        },
        {
          "internalType": "uint256",
          "name": "tokenId",
          "type": "uint256"
        },
        {
          "internalType": "bytes",
          "name": "data",
          "type": "bytes"
        }
      ],
      "name": "safeTransferFrom",
      "outputs": [],
      "stateMutability": "nonpayable",
      "type": "function"
    },
    {
      "inputs": [
        {
          "internalType": "address",
          "name": "operator",
          "type": "address"
        },
        {
          "internalType": "bool",
          "name": "approved",
          "type": "bool"
        }
      ],
      "name": "setApprovalForAll",
      "outputs": [],
      "stateMutability": "nonpayable",
      "type": "function"
    },
    {
      "inputs": [
        {
          "internalType": "bytes4",
          "name": "interfaceId",
          "type": "bytes4"
        }
      ],
      "name": "supportsInterface",
      "outputs": [
        {
          "internalType": "bool",
          "name": "",
          "type": "bool"
        }
      ],
      "stateMutability": "view",
      "type": "function",
      "constant": true
    },
    {
      "inputs": [],
      "name": "symbol",
      "outputs": [
        {
          "internalType": "string",
          "name": "",
          "type": "string"
        }
      ],
      "stateMutability": "view",
      "type": "function",
      "constant": true
    },
    {
      "inputs": [
        {
          "internalType": "uint256",
          "name": "tokenId",
          "type": "uint256"
        }
      ],
      "name": "tokenURI",
      "outputs": [
        {
          "internalType": "string",
          "name": "",
          "type": "string"
        }
      ],
      "stateMutability": "view",
      "type": "function",
      "constant": true
    },
    {
      "inputs": [
        {
          "internalType": "address",
          "name": "from",
          "type": "address"
        },
        {
          "internalType": "address",
          "name": "to",
          "type": "address"
        },
        {
          "internalType": "uint256",
          "name": "tokenId",
          "type": "uint256"
        }
      ],
      "name": "transferFrom",
      "outputs": [],
      "stateMutability": "nonpayable",
      "type": "function"
    },
    {
      "inputs": [
        {
          "internalType": "address",
          "name": "newOwner",
          "type": "address"
        }
      ],
      "name": "transferOwnership",
      "outputs": [],
      "stateMutability": "nonpayable",
      "type": "function"
    },
    {
      "inputs": [
        {
          "internalType": "uint256",
          "name": "_price",
          "type": "uint256"
        }
      ],
      "name": "setMintPrice",
      "outputs": [],
      "stateMutability": "nonpayable",
      "type": "function"
    },
    {
      "inputs": [],
      "name": "mintNFTTicket",
      "outputs": [],
      "stateMutability": "payable",
      "type": "function",
      "payable": true
    }
  ],
  "bytecode": "0x6080604052662e2f6e5e1480006009553480156200001c57600080fd5b506040518060400160405280600d81526020017f5377696674205469636b657473000000000000000000000000000000000000008152506040518060400160405280600581526020017f535749465400000000000000000000000000000000000000000000000000000081525081600090816200009a91906200041d565b508060019081620000ac91906200041d565b505050620000cf620000c3620000d560201b60201c565b620000dd60201b60201c565b62000504565b600033905090565b6000600760009054906101000a900473ffffffffffffffffffffffffffffffffffffffff16905081600760006101000a81548173ffffffffffffffffffffffffffffffffffffffff021916908373ffffffffffffffffffffffffffffffffffffffff1602179055508173ffffffffffffffffffffffffffffffffffffffff168173ffffffffffffffffffffffffffffffffffffffff167f8be0079c531659141344cd1fd0a4f28419497f9722a3daafe3b4186f6b6457e060405160405180910390a35050565b600081519050919050565b7f4e487b7100000000000000000000000000000000000000000000000000000000600052604160045260246000fd5b7f4e487b7100000000000000000000000000000000000000000000000000000000600052602260045260246000fd5b600060028204905060018216806200022557607f821691505b6020821081036200023b576200023a620001dd565b5b50919050565b60008190508160005260206000209050919050565b60006020601f8301049050919050565b600082821b905092915050565b600060088302620002a57fffffffffffffffffffffffffffffffffffffffffffffffffffffffffffffffff8262000266565b620002b1868362000266565b95508019841693508086168417925050509392505050565b6000819050919050565b6000819050919050565b6000620002fe620002f8620002f284620002c9565b620002d3565b620002c9565b9050919050565b6000819050919050565b6200031a83620002dd565b62000332620003298262000305565b84845462000273565b825550505050565b600090565b620003496200033a565b620003568184846200030f565b505050565b5b818110156200037e57620003726000826200033f565b6001810190506200035c565b5050565b601f821115620003cd57620003978162000241565b620003a28462000256565b81016020851015620003b2578190505b620003ca620003c18562000256565b8301826200035b565b50505b505050565b600082821c905092915050565b6000620003f260001984600802620003d2565b1980831691505092915050565b60006200040d8383620003df565b9150826002028217905092915050565b6200042882620001a3565b67ffffffffffffffff811115620004445762000443620001ae565b5b6200045082546200020c565b6200045d82828562000382565b600060209050601f83116001811462000495576000841562000480578287015190505b6200048c8582620003ff565b865550620004fc565b601f198416620004a58662000241565b60005b82811015620004cf57848901518255600182019150602085019450602081019050620004a8565b86831015620004ef5784890151620004eb601f891682620003df565b8355505b6001600288020188555050505b505050505050565b61303280620005146000396000f3fe6080604052600436106101145760003560e01c8063715018a6116100a0578063c002d23d11610064578063c002d23d1461037c578063c87b56dd146103a7578063e985e9c5146103e4578063f2fde38b14610421578063f4a0a5281461044a57610114565b8063715018a6146102bd5780638da5cb5b146102d457806395d89b41146102ff578063a22cb4651461032a578063b88d4fde1461035357610114565b80631d22124c116100e75780631d22124c146101e757806323b872dd146101f157806342842e0e1461021a5780636352211e1461024357806370a082311461028057610114565b806301ffc9a71461011957806306fdde0314610156578063081812fc14610181578063095ea7b3146101be575b600080fd5b34801561012557600080fd5b50610140600480360381019061013b9190611e08565b610473565b60405161014d9190611e50565b60405180910390f35b34801561016257600080fd5b5061016b6104d4565b6040516101789190611efb565b60405180910390f35b34801561018d57600080fd5b506101a860048036038101906101a39190611f53565b610566565b6040516101b59190611fc1565b60405180910390f35b3480156101ca57600080fd5b506101e560048036038101906101e09190612008565b6105ac565b005b6101ef6106c3565b005b3480156101fd57600080fd5b5061021860048036038101906102139190612048565b610756565b005b34801561022657600080fd5b50610241600480360381019061023c9190612048565b6107b6565b005b34801561024f57600080fd5b5061026a60048036038101906102659190611f53565b6107d6565b6040516102779190611fc1565b60405180910390f35b34801561028c57600080fd5b506102a760048036038101906102a2919061209b565b61085c565b6040516102b491906120d7565b60405180910390f35b3480156102c957600080fd5b506102d2610913565b005b3480156102e057600080fd5b506102e9610927565b6040516102f69190611fc1565b60405180910390f35b34801561030b57600080fd5b50610314610951565b6040516103219190611efb565b60405180910390f35b34801561033657600080fd5b50610351600480360381019061034c919061211e565b6109e3565b005b34801561035f57600080fd5b5061037a60048036038101906103759190612293565b6109f9565b005b34801561038857600080fd5b50610391610a5b565b60405161039e91906120d7565b60405180910390f35b3480156103b357600080fd5b506103ce60048036038101906103c99190611f53565b610a61565b6040516103db9190611efb565b60405180910390f35b3480156103f057600080fd5b5061040b60048036038101906104069190612316565b610b73565b6040516104189190611e50565b60405180910390f35b34801561042d57600080fd5b506104486004803603810190610443919061209b565b610c07565b005b34801561045657600080fd5b50610471600480360381019061046c9190611f53565b610c8a565b005b6000634906490660e01b7bffffffffffffffffffffffffffffffffffffffffffffffffffffffff1916827bffffffffffffffffffffffffffffffffffffffffffffffffffffffff191614806104cd57506104cc82610c9c565b5b9050919050565b6060600080546104e390612385565b80601f016020809104026020016040519081016040528092919081815260200182805461050f90612385565b801561055c5780601f106105315761010080835404028352916020019161055c565b820191906000526020600020905b81548152906001019060200180831161053f57829003601f168201915b5050505050905090565b600061057182610d7e565b6004600083815260200190815260200160002060009054906101000a900473ffffffffffffffffffffffffffffffffffffffff169050919050565b60006105b7826107d6565b90508073ffffffffffffffffffffffffffffffffffffffff168373ffffffffffffffffffffffffffffffffffffffff1603610627576040517f08c379a000000000000000000000000000000000000000000000000000000000815260040161061e90612428565b60405180910390fd5b8073ffffffffffffffffffffffffffffffffffffffff16610646610dc9565b73ffffffffffffffffffffffffffffffffffffffff16148061067557506106748161066f610dc9565b610b73565b5b6106b4576040517f08c379a00000000000000000000000000000000000000000000000000000000081526004016106ab906124ba565b60405180910390fd5b6106be8383610dd1565b505050565b600954341015610708576040517f08c379a00000000000000000000000000000000000000000000000000000000081526004016106ff90612526565b60405180910390fd5b600060085490506107193382610e8a565b61073b81604051806060016040528060358152602001612fc860359139610ea8565b6008600081548092919061074e90612575565b919050555050565b610767610761610dc9565b82610f4c565b6107a6576040517f08c379a000000000000000000000000000000000000000000000000000000000815260040161079d9061262f565b60405180910390fd5b6107b1838383610fe1565b505050565b6107d1838383604051806020016040528060008152506109f9565b505050565b6000806107e2836112da565b9050600073ffffffffffffffffffffffffffffffffffffffff168173ffffffffffffffffffffffffffffffffffffffff1603610853576040517f08c379a000000000000000000000000000000000000000000000000000000000815260040161084a9061269b565b60405180910390fd5b80915050919050565b60008073ffffffffffffffffffffffffffffffffffffffff168273ffffffffffffffffffffffffffffffffffffffff16036108cc576040517f08c379a00000000000000000000000000000000000000000000000000000000081526004016108c39061272d565b60405180910390fd5b600360008373ffffffffffffffffffffffffffffffffffffffff1673ffffffffffffffffffffffffffffffffffffffff168152602001908152602001600020549050919050565b61091b611317565b6109256000611395565b565b6000600760009054906101000a900473ffffffffffffffffffffffffffffffffffffffff16905090565b60606001805461096090612385565b80601f016020809104026020016040519081016040528092919081815260200182805461098c90612385565b80156109d95780601f106109ae576101008083540402835291602001916109d9565b820191906000526020600020905b8154815290600101906020018083116109bc57829003601f168201915b5050505050905090565b6109f56109ee610dc9565b838361145b565b5050565b610a0a610a04610dc9565b83610f4c565b610a49576040517f08c379a0000000000000000000000000000000000000000000000000000000008152600401610a409061262f565b60405180910390fd5b610a55848484846115c7565b50505050565b60095481565b6060610a6c82610d7e565b6000600660008481526020019081526020016000208054610a8c90612385565b80601f0160208091040260200160405190810160405280929190818152602001828054610ab890612385565b8015610b055780601f10610ada57610100808354040283529160200191610b05565b820191906000526020600020905b815481529060010190602001808311610ae857829003601f168201915b505050505090506000610b16611623565b90506000815103610b2b578192505050610b6e565b600082511115610b60578082604051602001610b48929190612789565b60405160208183030381529060405292505050610b6e565b610b698461163a565b925050505b919050565b6000600560008473ffffffffffffffffffffffffffffffffffffffff1673ffffffffffffffffffffffffffffffffffffffff16815260200190815260200160002060008373ffffffffffffffffffffffffffffffffffffffff1673ffffffffffffffffffffffffffffffffffffffff16815260200190815260200160002060009054906101000a900460ff16905092915050565b610c0f611317565b600073ffffffffffffffffffffffffffffffffffffffff168173ffffffffffffffffffffffffffffffffffffffff1603610c7e576040517f08c379a0000000000000000000000000000000000000000000000000000000008152600401610c759061281f565b60405180910390fd5b610c8781611395565b50565b610c92611317565b8060098190555050565b60007f80ac58cd000000000000000000000000000000000000000000000000000000007bffffffffffffffffffffffffffffffffffffffffffffffffffffffff1916827bffffffffffffffffffffffffffffffffffffffffffffffffffffffff19161480610d6757507f5b5e139f000000000000000000000000000000000000000000000000000000007bffffffffffffffffffffffffffffffffffffffffffffffffffffffff1916827bffffffffffffffffffffffffffffffffffffffffffffffffffffffff1916145b80610d775750610d76826116a2565b5b9050919050565b610d878161170c565b610dc6576040517f08c379a0000000000000000000000000000000000000000000000000000000008152600401610dbd9061269b565b60405180910390fd5b50565b600033905090565b816004600083815260200190815260200160002060006101000a81548173ffffffffffffffffffffffffffffffffffffffff021916908373ffffffffffffffffffffffffffffffffffffffff160217905550808273ffffffffffffffffffffffffffffffffffffffff16610e44836107d6565b73ffffffffffffffffffffffffffffffffffffffff167f8c5be1e5ebec7d5bd14f71427d1e84f3dd0314c0f7b2291e5b200ac8c7c3b92560405160405180910390a45050565b610ea482826040518060200160405280600081525061174d565b5050565b610eb18261170c565b610ef0576040517f08c379a0000000000000000000000000000000000000000000000000000000008152600401610ee7906128b1565b60405180910390fd5b80600660008481526020019081526020016000209081610f109190612a7d565b507ff8e1a15aba9398e019f0b49df1a4fde98ee17ae345cb5f6b5e2c27f5033e8ce782604051610f4091906120d7565b60405180910390a15050565b600080610f58836107d6565b90508073ffffffffffffffffffffffffffffffffffffffff168473ffffffffffffffffffffffffffffffffffffffff161480610f9a5750610f998185610b73565b5b80610fd857508373ffffffffffffffffffffffffffffffffffffffff16610fc084610566565b73ffffffffffffffffffffffffffffffffffffffff16145b91505092915050565b8273ffffffffffffffffffffffffffffffffffffffff16611001826107d6565b73ffffffffffffffffffffffffffffffffffffffff1614611057576040517f08c379a000000000000000000000000000000000000000000000000000000000815260040161104e90612bc1565b60405180910390fd5b600073ffffffffffffffffffffffffffffffffffffffff168273ffffffffffffffffffffffffffffffffffffffff16036110c6576040517f08c379a00000000000000000000000000000000000000000000000000000000081526004016110bd90612c53565b60405180910390fd5b6110d383838360016117a8565b8273ffffffffffffffffffffffffffffffffffffffff166110f3826107d6565b73ffffffffffffffffffffffffffffffffffffffff1614611149576040517f08c379a000000000000000000000000000000000000000000000000000000000815260040161114090612bc1565b60405180910390fd5b6004600082815260200190815260200160002060006101000a81549073ffffffffffffffffffffffffffffffffffffffff02191690556001600360008573ffffffffffffffffffffffffffffffffffffffff1673ffffffffffffffffffffffffffffffffffffffff168152602001908152602001600020600082825403925050819055506001600360008473ffffffffffffffffffffffffffffffffffffffff1673ffffffffffffffffffffffffffffffffffffffff16815260200190815260200160002060008282540192505081905550816002600083815260200190815260200160002060006101000a81548173ffffffffffffffffffffffffffffffffffffffff021916908373ffffffffffffffffffffffffffffffffffffffff160217905550808273ffffffffffffffffffffffffffffffffffffffff168473ffffffffffffffffffffffffffffffffffffffff167fddf252ad1be2c89b69c2b068fc378daa952ba7f163c4a11628f55a4df523b3ef60405160405180910390a46112d583838360016117ae565b505050565b60006002600083815260200190815260200160002060009054906101000a900473ffffffffffffffffffffffffffffffffffffffff169050919050565b61131f610dc9565b73ffffffffffffffffffffffffffffffffffffffff1661133d610927565b73ffffffffffffffffffffffffffffffffffffffff1614611393576040517f08c379a000000000000000000000000000000000000000000000000000000000815260040161138a90612cbf565b60405180910390fd5b565b6000600760009054906101000a900473ffffffffffffffffffffffffffffffffffffffff16905081600760006101000a81548173ffffffffffffffffffffffffffffffffffffffff021916908373ffffffffffffffffffffffffffffffffffffffff1602179055508173ffffffffffffffffffffffffffffffffffffffff168173ffffffffffffffffffffffffffffffffffffffff167f8be0079c531659141344cd1fd0a4f28419497f9722a3daafe3b4186f6b6457e060405160405180910390a35050565b8173ffffffffffffffffffffffffffffffffffffffff168373ffffffffffffffffffffffffffffffffffffffff16036114c9576040517f08c379a00000000000000000000000000000000000000000000000000000000081526004016114c090612d2b565b60405180910390fd5b80600560008573ffffffffffffffffffffffffffffffffffffffff1673ffffffffffffffffffffffffffffffffffffffff16815260200190815260200160002060008473ffffffffffffffffffffffffffffffffffffffff1673ffffffffffffffffffffffffffffffffffffffff16815260200190815260200160002060006101000a81548160ff0219169083151502179055508173ffffffffffffffffffffffffffffffffffffffff168373ffffffffffffffffffffffffffffffffffffffff167f17307eab39ab6107e8899845ad3d59bd9653f200f220920489ca2b5937696c31836040516115ba9190611e50565b60405180910390a3505050565b6115d2848484610fe1565b6115de848484846117b4565b61161d576040517f08c379a000000000000000000000000000000000000000000000000000000000815260040161161490612dbd565b60405180910390fd5b50505050565b606060405180602001604052806000815250905090565b606061164582610d7e565b600061164f611623565b9050600081511161166f576040518060200160405280600081525061169a565b806116798461193b565b60405160200161168a929190612789565b6040516020818303038152906040525b915050919050565b60007f01ffc9a7000000000000000000000000000000000000000000000000000000007bffffffffffffffffffffffffffffffffffffffffffffffffffffffff1916827bffffffffffffffffffffffffffffffffffffffffffffffffffffffff1916149050919050565b60008073ffffffffffffffffffffffffffffffffffffffff1661172e836112da565b73ffffffffffffffffffffffffffffffffffffffff1614159050919050565b6117578383611a09565b61176460008484846117b4565b6117a3576040517f08c379a000000000000000000000000000000000000000000000000000000000815260040161179a90612dbd565b60405180910390fd5b505050565b50505050565b50505050565b60006117d58473ffffffffffffffffffffffffffffffffffffffff16611c26565b1561192e578373ffffffffffffffffffffffffffffffffffffffff1663150b7a026117fe610dc9565b8786866040518563ffffffff1660e01b81526004016118209493929190612e32565b6020604051808303816000875af192505050801561185c57506040513d601f19601f820116820180604052508101906118599190612e93565b60015b6118de573d806000811461188c576040519150601f19603f3d011682016040523d82523d6000602084013e611891565b606091505b5060008151036118d6576040517f08c379a00000000000000000000000000000000000000000000000000000000081526004016118cd90612dbd565b60405180910390fd5b805181602001fd5b63150b7a0260e01b7bffffffffffffffffffffffffffffffffffffffffffffffffffffffff1916817bffffffffffffffffffffffffffffffffffffffffffffffffffffffff191614915050611933565b600190505b949350505050565b60606000600161194a84611c49565b01905060008167ffffffffffffffff81111561196957611968612168565b5b6040519080825280601f01601f19166020018201604052801561199b5781602001600182028036833780820191505090505b509050600082602001820190505b6001156119fe578080600190039150507f3031323334353637383961626364656600000000000000000000000000000000600a86061a8153600a85816119f2576119f1612ec0565b5b049450600085036119a9575b819350505050919050565b600073ffffffffffffffffffffffffffffffffffffffff168273ffffffffffffffffffffffffffffffffffffffff1603611a78576040517f08c379a0000000000000000000000000000000000000000000000000000000008152600401611a6f90612f3b565b60405180910390fd5b611a818161170c565b15611ac1576040517f08c379a0000000000000000000000000000000000000000000000000000000008152600401611ab890612fa7565b60405180910390fd5b611acf6000838360016117a8565b611ad88161170c565b15611b18576040517f08c379a0000000000000000000000000000000000000000000000000000000008152600401611b0f90612fa7565b60405180910390fd5b6001600360008473ffffffffffffffffffffffffffffffffffffffff1673ffffffffffffffffffffffffffffffffffffffff16815260200190815260200160002060008282540192505081905550816002600083815260200190815260200160002060006101000a81548173ffffffffffffffffffffffffffffffffffffffff021916908373ffffffffffffffffffffffffffffffffffffffff160217905550808273ffffffffffffffffffffffffffffffffffffffff16600073ffffffffffffffffffffffffffffffffffffffff167fddf252ad1be2c89b69c2b068fc378daa952ba7f163c4a11628f55a4df523b3ef60405160405180910390a4611c226000838360016117ae565b5050565b6000808273ffffffffffffffffffffffffffffffffffffffff163b119050919050565b600080600090507a184f03e93ff9f4daa797ed6e38ed64bf6a1f0100000000000000008310611ca7577a184f03e93ff9f4daa797ed6e38ed64bf6a1f0100000000000000008381611c9d57611c9c612ec0565b5b0492506040810190505b6d04ee2d6d415b85acef81000000008310611ce4576d04ee2d6d415b85acef81000000008381611cda57611cd9612ec0565b5b0492506020810190505b662386f26fc100008310611d1357662386f26fc100008381611d0957611d08612ec0565b5b0492506010810190505b6305f5e1008310611d3c576305f5e1008381611d3257611d31612ec0565b5b0492506008810190505b6127108310611d61576127108381611d5757611d56612ec0565b5b0492506004810190505b60648310611d845760648381611d7a57611d79612ec0565b5b0492506002810190505b600a8310611d93576001810190505b80915050919050565b6000604051905090565b600080fd5b600080fd5b60007fffffffff0000000000000000000000000000000000000000000000000000000082169050919050565b611de581611db0565b8114611df057600080fd5b50565b600081359050611e0281611ddc565b92915050565b600060208284031215611e1e57611e1d611da6565b5b6000611e2c84828501611df3565b91505092915050565b60008115159050919050565b611e4a81611e35565b82525050565b6000602082019050611e656000830184611e41565b92915050565b600081519050919050565b600082825260208201905092915050565b60005b83811015611ea5578082015181840152602081019050611e8a565b60008484015250505050565b6000601f19601f8301169050919050565b6000611ecd82611e6b565b611ed78185611e76565b9350611ee7818560208601611e87565b611ef081611eb1565b840191505092915050565b60006020820190508181036000830152611f158184611ec2565b905092915050565b6000819050919050565b611f3081611f1d565b8114611f3b57600080fd5b50565b600081359050611f4d81611f27565b92915050565b600060208284031215611f6957611f68611da6565b5b6000611f7784828501611f3e565b91505092915050565b600073ffffffffffffffffffffffffffffffffffffffff82169050919050565b6000611fab82611f80565b9050919050565b611fbb81611fa0565b82525050565b6000602082019050611fd66000830184611fb2565b92915050565b611fe581611fa0565b8114611ff057600080fd5b50565b60008135905061200281611fdc565b92915050565b6000806040838503121561201f5761201e611da6565b5b600061202d85828601611ff3565b925050602061203e85828601611f3e565b9150509250929050565b60008060006060848603121561206157612060611da6565b5b600061206f86828701611ff3565b935050602061208086828701611ff3565b925050604061209186828701611f3e565b9150509250925092565b6000602082840312156120b1576120b0611da6565b5b60006120bf84828501611ff3565b91505092915050565b6120d181611f1d565b82525050565b60006020820190506120ec60008301846120c8565b92915050565b6120fb81611e35565b811461210657600080fd5b50565b600081359050612118816120f2565b92915050565b6000806040838503121561213557612134611da6565b5b600061214385828601611ff3565b925050602061215485828601612109565b9150509250929050565b600080fd5b600080fd5b7f4e487b7100000000000000000000000000000000000000000000000000000000600052604160045260246000fd5b6121a082611eb1565b810181811067ffffffffffffffff821117156121bf576121be612168565b5b80604052505050565b60006121d2611d9c565b90506121de8282612197565b919050565b600067ffffffffffffffff8211156121fe576121fd612168565b5b61220782611eb1565b9050602081019050919050565b82818337600083830152505050565b6000612236612231846121e3565b6121c8565b90508281526020810184848401111561225257612251612163565b5b61225d848285612214565b509392505050565b600082601f83011261227a5761227961215e565b5b813561228a848260208601612223565b91505092915050565b600080600080608085870312156122ad576122ac611da6565b5b60006122bb87828801611ff3565b94505060206122cc87828801611ff3565b93505060406122dd87828801611f3e565b925050606085013567ffffffffffffffff8111156122fe576122fd611dab565b5b61230a87828801612265565b91505092959194509250565b6000806040838503121561232d5761232c611da6565b5b600061233b85828601611ff3565b925050602061234c85828601611ff3565b9150509250929050565b7f4e487b7100000000000000000000000000000000000000000000000000000000600052602260045260246000fd5b6000600282049050600182168061239d57607f821691505b6020821081036123b0576123af612356565b5b50919050565b7f4552433732313a20617070726f76616c20746f2063757272656e74206f776e6560008201527f7200000000000000000000000000000000000000000000000000000000000000602082015250565b6000612412602183611e76565b915061241d826123b6565b604082019050919050565b6000602082019050818103600083015261244181612405565b9050919050565b7f4552433732313a20617070726f76652063616c6c6572206973206e6f7420746f60008201527f6b656e206f776e6572206f7220617070726f76656420666f7220616c6c000000602082015250565b60006124a4603d83611e76565b91506124af82612448565b604082019050919050565b600060208201905081810360008301526124d381612497565b9050919050565b7f496e73756666696369656e74207061796d656e74000000000000000000000000600082015250565b6000612510601483611e76565b915061251b826124da565b602082019050919050565b6000602082019050818103600083015261253f81612503565b9050919050565b7f4e487b7100000000000000000000000000000000000000000000000000000000600052601160045260246000fd5b600061258082611f1d565b91507fffffffffffffffffffffffffffffffffffffffffffffffffffffffffffffffff82036125b2576125b1612546565b5b600182019050919050565b7f4552433732313a2063616c6c6572206973206e6f7420746f6b656e206f776e6560008201527f72206f7220617070726f76656400000000000000000000000000000000000000602082015250565b6000612619602d83611e76565b9150612624826125bd565b604082019050919050565b600060208201905081810360008301526126488161260c565b9050919050565b7f4552433732313a20696e76616c696420746f6b656e2049440000000000000000600082015250565b6000612685601883611e76565b91506126908261264f565b602082019050919050565b600060208201905081810360008301526126b481612678565b9050919050565b7f4552433732313a2061646472657373207a65726f206973206e6f74206120766160008201527f6c6964206f776e65720000000000000000000000000000000000000000000000602082015250565b6000612717602983611e76565b9150612722826126bb565b604082019050919050565b600060208201905081810360008301526127468161270a565b9050919050565b600081905092915050565b600061276382611e6b565b61276d818561274d565b935061277d818560208601611e87565b80840191505092915050565b60006127958285612758565b91506127a18284612758565b91508190509392505050565b7f4f776e61626c653a206e6577206f776e657220697320746865207a65726f206160008201527f6464726573730000000000000000000000000000000000000000000000000000602082015250565b6000612809602683611e76565b9150612814826127ad565b604082019050919050565b60006020820190508181036000830152612838816127fc565b9050919050565b7f45524337323155524953746f726167653a2055524920736574206f66206e6f6e60008201527f6578697374656e7420746f6b656e000000000000000000000000000000000000602082015250565b600061289b602e83611e76565b91506128a68261283f565b604082019050919050565b600060208201905081810360008301526128ca8161288e565b9050919050565b60008190508160005260206000209050919050565b60006020601f8301049050919050565b600082821b905092915050565b6000600883026129337fffffffffffffffffffffffffffffffffffffffffffffffffffffffffffffffff826128f6565b61293d86836128f6565b95508019841693508086168417925050509392505050565b6000819050919050565b600061297a61297561297084611f1d565b612955565b611f1d565b9050919050565b6000819050919050565b6129948361295f565b6129a86129a082612981565b848454612903565b825550505050565b600090565b6129bd6129b0565b6129c881848461298b565b505050565b5b818110156129ec576129e16000826129b5565b6001810190506129ce565b5050565b601f821115612a3157612a02816128d1565b612a0b846128e6565b81016020851015612a1a578190505b612a2e612a26856128e6565b8301826129cd565b50505b505050565b600082821c905092915050565b6000612a5460001984600802612a36565b1980831691505092915050565b6000612a6d8383612a43565b9150826002028217905092915050565b612a8682611e6b565b67ffffffffffffffff811115612a9f57612a9e612168565b5b612aa98254612385565b612ab48282856129f0565b600060209050601f831160018114612ae75760008415612ad5578287015190505b612adf8582612a61565b865550612b47565b601f198416612af5866128d1565b60005b82811015612b1d57848901518255600182019150602085019450602081019050612af8565b86831015612b3a5784890151612b36601f891682612a43565b8355505b6001600288020188555050505b505050505050565b7f4552433732313a207472616e736665722066726f6d20696e636f72726563742060008201527f6f776e6572000000000000000000000000000000000000000000000000000000602082015250565b6000612bab602583611e76565b9150612bb682612b4f565b604082019050919050565b60006020820190508181036000830152612bda81612b9e565b9050919050565b7f4552433732313a207472616e7366657220746f20746865207a65726f2061646460008201527f7265737300000000000000000000000000000000000000000000000000000000602082015250565b6000612c3d602483611e76565b9150612c4882612be1565b604082019050919050565b60006020820190508181036000830152612c6c81612c30565b9050919050565b7f4f776e61626c653a2063616c6c6572206973206e6f7420746865206f776e6572600082015250565b6000612ca9602083611e76565b9150612cb482612c73565b602082019050919050565b60006020820190508181036000830152612cd881612c9c565b9050919050565b7f4552433732313a20617070726f766520746f2063616c6c657200000000000000600082015250565b6000612d15601983611e76565b9150612d2082612cdf565b602082019050919050565b60006020820190508181036000830152612d4481612d08565b9050919050565b7f4552433732313a207472616e7366657220746f206e6f6e20455243373231526560008201527f63656976657220696d706c656d656e7465720000000000000000000000000000602082015250565b6000612da7603283611e76565b9150612db282612d4b565b604082019050919050565b60006020820190508181036000830152612dd681612d9a565b9050919050565b600081519050919050565b600082825260208201905092915050565b6000612e0482612ddd565b612e0e8185612de8565b9350612e1e818560208601611e87565b612e2781611eb1565b840191505092915050565b6000608082019050612e476000830187611fb2565b612e546020830186611fb2565b612e6160408301856120c8565b8181036060830152612e738184612df9565b905095945050505050565b600081519050612e8d81611ddc565b92915050565b600060208284031215612ea957612ea8611da6565b5b6000612eb784828501612e7e565b91505092915050565b7f4e487b7100000000000000000000000000000000000000000000000000000000600052601260045260246000fd5b7f4552433732313a206d696e7420746f20746865207a65726f2061646472657373600082015250565b6000612f25602083611e76565b9150612f3082612eef565b602082019050919050565b60006020820190508181036000830152612f5481612f18565b9050919050565b7f4552433732313a20746f6b656e20616c7265616479206d696e74656400000000600082015250565b6000612f91601c83611e76565b9150612f9c82612f5b565b602082019050919050565b60006020820190508181036000830152612fc081612f84565b905091905056fe697066733a2f2f516d574e6666366b653366396e62724c64577244313261574d634a326671423177344c70464a5350473172363361a2646970667358221220dbaeee87a74aef02da5024053e364116d884ca84ff4770f1ac0eac3132160a3f64736f6c63430008110033",
  "immutableReferences": {},
  "source": "// SPDX-License-Identifier: UNLICENSED\n\npragma solidity ^0.8.17;\n\nimport \"@openzeppelin/contracts/token/ERC721/extensions/ERC721URIStorage.sol\";\nimport \"@openzeppelin/contracts/access/Ownable.sol\";\n\ncontract MintTicket is ERC721URIStorage, Ownable {\n    // Counter to keep track of minted tickets.\n    uint256 private mintedTicketCount;\n\n    // Price of each mint\n    uint256 public MINT_PRICE = 0.013 ether;\n\n    // We need to pass the name of our NFTs token and its symbol.\n    constructor() ERC721(\"Swift Tickets\", \"SWIFT\") { }\n\n    function setMintPrice(uint256 _price) external onlyOwner {\n        MINT_PRICE = _price;\n    }\n\n    // A function our user will hit to get their NFT.\n    function mintNFTTicket() public payable {\n        require(msg.value >= MINT_PRICE, \"Insufficient payment\");\n\n        // Get the current tokenId, this starts at 0.\n        uint256 newTicketId = mintedTicketCount;\n\n        // Actually mint the NFT to the sender using msg.sender.\n        _safeMint(msg.sender, newTicketId);\n\n        // Return the NFT's metadata\n        _setTokenURI(\n            newTicketId,\n            \"ipfs://QmWNff6ke3f9nbrLdWrD12aWMcJ2fqB1w4LpFJSPG1r63a\"\n        );\n\n        // Increment counter when next NFT ticket is minted\n        mintedTicketCount++;\n    }\n}",
  "sourcePath": "/Users/matt_wong/Desktop/swift-tickets-navh/blockchain/contracts/MintTicket.sol",
  "compiler": {
    "name": "solc",
    "version": "0.8.17+commit.8df45f5f.Emscripten.clang"
  },
  "schemaVersion": "3.4.12",
  "updatedAt": "2023-08-19T22:25:27.796Z",
  "networkType": "ethereum",
  "devdoc": {
    "kind": "dev",
    "methods": {
      "approve(address,uint256)": {
        "details": "See {IERC721-approve}."
      },
      "balanceOf(address)": {
        "details": "See {IERC721-balanceOf}."
      },
      "getApproved(uint256)": {
        "details": "See {IERC721-getApproved}."
      },
      "isApprovedForAll(address,address)": {
        "details": "See {IERC721-isApprovedForAll}."
      },
      "name()": {
        "details": "See {IERC721Metadata-name}."
      },
      "owner()": {
        "details": "Returns the address of the current owner."
      },
      "ownerOf(uint256)": {
        "details": "See {IERC721-ownerOf}."
      },
      "renounceOwnership()": {
        "details": "Leaves the contract without owner. It will not be possible to call `onlyOwner` functions. Can only be called by the current owner. NOTE: Renouncing ownership will leave the contract without an owner, thereby disabling any functionality that is only available to the owner."
      },
      "safeTransferFrom(address,address,uint256)": {
        "details": "See {IERC721-safeTransferFrom}."
      },
      "safeTransferFrom(address,address,uint256,bytes)": {
        "details": "See {IERC721-safeTransferFrom}."
      },
      "setApprovalForAll(address,bool)": {
        "details": "See {IERC721-setApprovalForAll}."
      },
      "supportsInterface(bytes4)": {
        "details": "See {IERC165-supportsInterface}"
      },
      "symbol()": {
        "details": "See {IERC721Metadata-symbol}."
      },
      "tokenURI(uint256)": {
        "details": "See {IERC721Metadata-tokenURI}."
      },
      "transferFrom(address,address,uint256)": {
        "details": "See {IERC721-transferFrom}."
      },
      "transferOwnership(address)": {
        "details": "Transfers ownership of the contract to a new account (`newOwner`). Can only be called by the current owner."
      }
    },
    "version": 1
  },
  "userdoc": {
    "kind": "user",
    "methods": {},
    "version": 1
  }
}