{
    "_format": "hh-sol-artifact-1",
    "contractName": "MyEpicNFT",
    "sourceName": "contracts/MyEpicNFT.sol",
    "abi": [
        {
            "inputs": [],
            "stateMutability": "nonpayable",
            "type": "constructor"
        },
        {
            "anonymous": false,
            "inputs": [
                {
                    "indexed": true,
                    "internalType": "address",
                    "name": "owner",
                    "type": "address"
                },
                {
                    "indexed": true,
                    "internalType": "address",
                    "name": "approved",
                    "type": "address"
                },
                {
                    "indexed": true,
                    "internalType": "uint256",
                    "name": "tokenId",
                    "type": "uint256"
                }
            ],
            "name": "Approval",
            "type": "event"
        },
        {
            "anonymous": false,
            "inputs": [
                {
                    "indexed": true,
                    "internalType": "address",
                    "name": "owner",
                    "type": "address"
                },
                {
                    "indexed": true,
                    "internalType": "address",
                    "name": "operator",
                    "type": "address"
                },
                {
                    "indexed": false,
                    "internalType": "bool",
                    "name": "approved",
                    "type": "bool"
                }
            ],
            "name": "ApprovalForAll",
            "type": "event"
        },
        {
            "anonymous": false,
            "inputs": [
                {
                    "indexed": false,
                    "internalType": "address",
                    "name": "sender",
                    "type": "address"
                },
                {
                    "indexed": false,
                    "internalType": "uint256",
                    "name": "tokenId",
                    "type": "uint256"
                }
            ],
            "name": "NewEpicNFTMinted",
            "type": "event"
        },
        {
            "anonymous": false,
            "inputs": [
                {
                    "indexed": true,
                    "internalType": "address",
                    "name": "from",
                    "type": "address"
                },
                {
                    "indexed": true,
                    "internalType": "address",
                    "name": "to",
                    "type": "address"
                },
                {
                    "indexed": true,
                    "internalType": "uint256",
                    "name": "tokenId",
                    "type": "uint256"
                }
            ],
            "name": "Transfer",
            "type": "event"
        },
        {
            "inputs": [
                {
                    "internalType": "address",
                    "name": "to",
                    "type": "address"
                },
                {
                    "internalType": "uint256",
                    "name": "tokenId",
                    "type": "uint256"
                }
            ],
            "name": "approve",
            "outputs": [],
            "stateMutability": "nonpayable",
            "type": "function"
        },
        {
            "inputs": [
                {
                    "internalType": "address",
                    "name": "owner",
                    "type": "address"
                }
            ],
            "name": "balanceOf",
            "outputs": [
                {
                    "internalType": "uint256",
                    "name": "",
                    "type": "uint256"
                }
            ],
            "stateMutability": "view",
            "type": "function"
        },
        {
            "inputs": [
                {
                    "internalType": "uint256",
                    "name": "tokenId",
                    "type": "uint256"
                }
            ],
            "name": "getApproved",
            "outputs": [
                {
                    "internalType": "address",
                    "name": "",
                    "type": "address"
                }
            ],
            "stateMutability": "view",
            "type": "function"
        },
        {
            "inputs": [
                {
                    "internalType": "address",
                    "name": "owner",
                    "type": "address"
                },
                {
                    "internalType": "address",
                    "name": "operator",
                    "type": "address"
                }
            ],
            "name": "isApprovedForAll",
            "outputs": [
                {
                    "internalType": "bool",
                    "name": "",
                    "type": "bool"
                }
            ],
            "stateMutability": "view",
            "type": "function"
        },
        {
            "inputs": [],
            "name": "makeAnEpicNFT",
            "outputs": [],
            "stateMutability": "nonpayable",
            "type": "function"
        },
        {
            "inputs": [],
            "name": "name",
            "outputs": [
                {
                    "internalType": "string",
                    "name": "",
                    "type": "string"
                }
            ],
            "stateMutability": "view",
            "type": "function"
        },
        {
            "inputs": [
                {
                    "internalType": "uint256",
                    "name": "tokenId",
                    "type": "uint256"
                }
            ],
            "name": "ownerOf",
            "outputs": [
                {
                    "internalType": "address",
                    "name": "",
                    "type": "address"
                }
            ],
            "stateMutability": "view",
            "type": "function"
        },
        {
            "inputs": [
                {
                    "internalType": "uint256",
                    "name": "tokenId",
                    "type": "uint256"
                }
            ],
            "name": "pickRandomFirstWord",
            "outputs": [
                {
                    "internalType": "string",
                    "name": "",
                    "type": "string"
                }
            ],
            "stateMutability": "view",
            "type": "function"
        },
        {
            "inputs": [
                {
                    "internalType": "uint256",
                    "name": "tokenId",
                    "type": "uint256"
                }
            ],
            "name": "pickRandomSecondWord",
            "outputs": [
                {
                    "internalType": "string",
                    "name": "",
                    "type": "string"
                }
            ],
            "stateMutability": "view",
            "type": "function"
        },
        {
            "inputs": [
                {
                    "internalType": "uint256",
                    "name": "tokenId",
                    "type": "uint256"
                }
            ],
            "name": "pickRandomThirdWord",
            "outputs": [
                {
                    "internalType": "string",
                    "name": "",
                    "type": "string"
                }
            ],
            "stateMutability": "view",
            "type": "function"
        },
        {
            "inputs": [
                {
                    "internalType": "string",
                    "name": "input",
                    "type": "string"
                }
            ],
            "name": "random",
            "outputs": [
                {
                    "internalType": "uint256",
                    "name": "",
                    "type": "uint256"
                }
            ],
            "stateMutability": "pure",
            "type": "function"
        },
        {
            "inputs": [
                {
                    "internalType": "address",
                    "name": "from",
                    "type": "address"
                },
                {
                    "internalType": "address",
                    "name": "to",
                    "type": "address"
                },
                {
                    "internalType": "uint256",
                    "name": "tokenId",
                    "type": "uint256"
                }
            ],
            "name": "safeTransferFrom",
            "outputs": [],
            "stateMutability": "nonpayable",
            "type": "function"
        },
        {
            "inputs": [
                {
                    "internalType": "address",
                    "name": "from",
                    "type": "address"
                },
                {
                    "internalType": "address",
                    "name": "to",
                    "type": "address"
                },
                {
                    "internalType": "uint256",
                    "name": "tokenId",
                    "type": "uint256"
                },
                {
                    "internalType": "bytes",
                    "name": "data",
                    "type": "bytes"
                }
            ],
            "name": "safeTransferFrom",
            "outputs": [],
            "stateMutability": "nonpayable",
            "type": "function"
        },
        {
            "inputs": [
                {
                    "internalType": "address",
                    "name": "operator",
                    "type": "address"
                },
                {
                    "internalType": "bool",
                    "name": "approved",
                    "type": "bool"
                }
            ],
            "name": "setApprovalForAll",
            "outputs": [],
            "stateMutability": "nonpayable",
            "type": "function"
        },
        {
            "inputs": [
                {
                    "internalType": "bytes4",
                    "name": "interfaceId",
                    "type": "bytes4"
                }
            ],
            "name": "supportsInterface",
            "outputs": [
                {
                    "internalType": "bool",
                    "name": "",
                    "type": "bool"
                }
            ],
            "stateMutability": "view",
            "type": "function"
        },
        {
            "inputs": [],
            "name": "symbol",
            "outputs": [
                {
                    "internalType": "string",
                    "name": "",
                    "type": "string"
                }
            ],
            "stateMutability": "view",
            "type": "function"
        },
        {
            "inputs": [
                {
                    "internalType": "uint256",
                    "name": "tokenId",
                    "type": "uint256"
                }
            ],
            "name": "tokenURI",
            "outputs": [
                {
                    "internalType": "string",
                    "name": "",
                    "type": "string"
                }
            ],
            "stateMutability": "view",
            "type": "function"
        },
        {
            "inputs": [
                {
                    "internalType": "address",
                    "name": "from",
                    "type": "address"
                },
                {
                    "internalType": "address",
                    "name": "to",
                    "type": "address"
                },
                {
                    "internalType": "uint256",
                    "name": "tokenId",
                    "type": "uint256"
                }
            ],
            "name": "transferFrom",
            "outputs": [],
            "stateMutability": "nonpayable",
            "type": "function"
        }
    ],
    "bytecode": "0x608060405260405180610160016040528061012f815260200162003edf61012f913960089081620000319190620009d0565b506040518060c001604052806040518060400160405280600881526020017f457468657265756d00000000000000000000000000000000000000000000000081525081526020016040518060400160405280600681526020017f536f6c616e61000000000000000000000000000000000000000000000000000081525081526020016040518060400160405280600581526020017f4170746f7300000000000000000000000000000000000000000000000000000081525081526020016040518060400160405280600981526020017f4176616c616e636865000000000000000000000000000000000000000000000081525081526020016040518060400160405280600781526020017f426974636f696e0000000000000000000000000000000000000000000000000081525081526020016040518060400160405280600481526020017f4e454152000000000000000000000000000000000000000000000000000000008152508152506009906006620001af92919062000669565b506040518060c001604052806040518060400160405280600381526020017f616e64000000000000000000000000000000000000000000000000000000000081525081526020016040518060400160405280600281526020017f746f00000000000000000000000000000000000000000000000000000000000081525081526020016040518060400160405280600281526020017f6f7200000000000000000000000000000000000000000000000000000000000081525081526020016040518060400160405280600481526020017f776974680000000000000000000000000000000000000000000000000000000081525081526020016040518060400160405280600481526020017f706c75730000000000000000000000000000000000000000000000000000000081525081526020016040518060400160405280600281526020017f6f6e000000000000000000000000000000000000000000000000000000000000815250815250600a9060066200032d92919062000669565b506040518060c001604052806040518060400160405280600881526020017f457468657265756d00000000000000000000000000000000000000000000000081525081526020016040518060400160405280600681526020017f536f6c616e61000000000000000000000000000000000000000000000000000081525081526020016040518060400160405280600581526020017f4170746f7300000000000000000000000000000000000000000000000000000081525081526020016040518060400160405280600981526020017f4176616c616e636865000000000000000000000000000000000000000000000081525081526020016040518060400160405280600781526020017f426974636f696e0000000000000000000000000000000000000000000000000081525081526020016040518060400160405280600481526020017f4e45415200000000000000000000000000000000000000000000000000000000815250815250600b906006620004ab92919062000669565b50348015620004b957600080fd5b506040518060400160405280600981526020017f4d61747420576f6e6700000000000000000000000000000000000000000000008152506040518060400160405280600481526020017f4d415454000000000000000000000000000000000000000000000000000000008152508160009081620005379190620009d0565b508060019081620005499190620009d0565b505050620005976040518060400160405280601e81526020017f54686973206973206d79204e465420636f6e74726163742e20576f61682100008152506200059d60201b62000f511760201c565b62000b6a565b6200063d81604051602401620005b4919062000b46565b6040516020818303038152906040527f41304fac000000000000000000000000000000000000000000000000000000007bffffffffffffffffffffffffffffffffffffffffffffffffffffffff19166020820180517bffffffffffffffffffffffffffffffffffffffffffffffffffffffff83818316178352505050506200064060201b60201c565b50565b60008151905060006a636f6e736f6c652e6c6f679050602083016000808483855afa5050505050565b828054828255906000526020600020908101928215620006b6579160200282015b82811115620006b5578251829081620006a49190620009d0565b50916020019190600101906200068a565b5b509050620006c59190620006c9565b5090565b5b80821115620006ed5760008181620006e39190620006f1565b50600101620006ca565b5090565b508054620006ff90620007bf565b6000825580601f1062000713575062000734565b601f01602090049060005260206000209081019062000733919062000737565b5b50565b5b808211156200075257600081600090555060010162000738565b5090565b600081519050919050565b7f4e487b7100000000000000000000000000000000000000000000000000000000600052604160045260246000fd5b7f4e487b7100000000000000000000000000000000000000000000000000000000600052602260045260246000fd5b60006002820490506001821680620007d857607f821691505b602082108103620007ee57620007ed62000790565b5b50919050565b60008190508160005260206000209050919050565b60006020601f8301049050919050565b600082821b905092915050565b600060088302620008587fffffffffffffffffffffffffffffffffffffffffffffffffffffffffffffffff8262000819565b62000864868362000819565b95508019841693508086168417925050509392505050565b6000819050919050565b6000819050919050565b6000620008b1620008ab620008a5846200087c565b62000886565b6200087c565b9050919050565b6000819050919050565b620008cd8362000890565b620008e5620008dc82620008b8565b84845462000826565b825550505050565b600090565b620008fc620008ed565b62000909818484620008c2565b505050565b5b81811015620009315762000925600082620008f2565b6001810190506200090f565b5050565b601f82111562000980576200094a81620007f4565b620009558462000809565b8101602085101562000965578190505b6200097d620009748562000809565b8301826200090e565b50505b505050565b600082821c905092915050565b6000620009a56000198460080262000985565b1980831691505092915050565b6000620009c0838362000992565b9150826002028217905092915050565b620009db8262000756565b67ffffffffffffffff811115620009f757620009f662000761565b5b62000a038254620007bf565b62000a1082828562000935565b600060209050601f83116001811462000a48576000841562000a33578287015190505b62000a3f8582620009b2565b86555062000aaf565b601f19841662000a5886620007f4565b60005b8281101562000a825784890151825560018201915060208501945060208101905062000a5b565b8683101562000aa2578489015162000a9e601f89168262000992565b8355505b6001600288020188555050505b505050505050565b600082825260208201905092915050565b60005b8381101562000ae857808201518184015260208101905062000acb565b60008484015250505050565b6000601f19601f8301169050919050565b600062000b128262000756565b62000b1e818562000ab7565b935062000b3081856020860162000ac8565b62000b3b8162000af4565b840191505092915050565b6000602082019050818103600083015262000b62818462000b05565b905092915050565b6133658062000b7a6000396000f3fe608060405234801561001057600080fd5b50600436106101165760003560e01c806370a08231116100a2578063b88d4fde11610071578063b88d4fde14610317578063c575757a14610333578063c87b56dd14610363578063de9d132f14610393578063e985e9c51461039d57610116565b806370a082311461027d57806395d89b41146102ad578063a22cb465146102cb578063b187301f146102e757610116565b806322b8d044116100e957806322b8d044146101b557806323b872dd146101e55780632de38d681461020157806342842e0e146102315780636352211e1461024d57610116565b806301ffc9a71461011b57806306fdde031461014b578063081812fc14610169578063095ea7b314610199575b600080fd5b61013560048036038101906101309190611fe5565b6103cd565b604051610142919061202d565b60405180910390f35b6101536104af565b60405161016091906120d8565b60405180910390f35b610183600480360381019061017e9190612130565b610541565b604051610190919061219e565b60405180910390f35b6101b360048036038101906101ae91906121e5565b610587565b005b6101cf60048036038101906101ca919061235a565b61069e565b6040516101dc91906123b2565b60405180910390f35b6101ff60048036038101906101fa91906123cd565b6106d1565b005b61021b60048036038101906102169190612130565b610731565b60405161022891906120d8565b60405180910390f35b61024b600480360381019061024691906123cd565b610835565b005b61026760048036038101906102629190612130565b610855565b604051610274919061219e565b60405180910390f35b61029760048036038101906102929190612420565b6108db565b6040516102a491906123b2565b60405180910390f35b6102b5610992565b6040516102c291906120d8565b60405180910390f35b6102e560048036038101906102e09190612479565b610a24565b005b61030160048036038101906102fc9190612130565b610a3a565b60405161030e91906120d8565b60405180910390f35b610331600480360381019061032c919061255a565b610b32565b005b61034d60048036038101906103489190612130565b610b94565b60405161035a91906120d8565b60405180910390f35b61037d60048036038101906103789190612130565b610c8c565b60405161038a91906120d8565b60405180910390f35b61039b610d9e565b005b6103b760048036038101906103b291906125dd565b610ebd565b6040516103c4919061202d565b60405180910390f35b60007f80ac58cd000000000000000000000000000000000000000000000000000000007bffffffffffffffffffffffffffffffffffffffffffffffffffffffff1916827bffffffffffffffffffffffffffffffffffffffffffffffffffffffff1916148061049857507f5b5e139f000000000000000000000000000000000000000000000000000000007bffffffffffffffffffffffffffffffffffffffffffffffffffffffff1916827bffffffffffffffffffffffffffffffffffffffffffffffffffffffff1916145b806104a857506104a782610fea565b5b9050919050565b6060600080546104be9061264c565b80601f01602080910402602001604051908101604052809291908181526020018280546104ea9061264c565b80156105375780601f1061050c57610100808354040283529160200191610537565b820191906000526020600020905b81548152906001019060200180831161051a57829003601f168201915b5050505050905090565b600061054c82611054565b6004600083815260200190815260200160002060009054906101000a900473ffffffffffffffffffffffffffffffffffffffff169050919050565b600061059282610855565b90508073ffffffffffffffffffffffffffffffffffffffff168373ffffffffffffffffffffffffffffffffffffffff1603610602576040517f08c379a00000000000000000000000000000000000000000000000000000000081526004016105f9906126ef565b60405180910390fd5b8073ffffffffffffffffffffffffffffffffffffffff1661062161109f565b73ffffffffffffffffffffffffffffffffffffffff161480610650575061064f8161064a61109f565b610ebd565b5b61068f576040517f08c379a000000000000000000000000000000000000000000000000000000000815260040161068690612781565b60405180910390fd5b61069983836110a7565b505050565b6000816040516020016106b191906127dd565b6040516020818303038152906040528051906020012060001c9050919050565b6106e26106dc61109f565b82611160565b610721576040517f08c379a000000000000000000000000000000000000000000000000000000000815260040161071890612866565b60405180910390fd5b61072c8383836111f5565b505050565b6060600061073e836114ee565b60405160200161074e91906128d2565b60405160208183030381529060405290506000819050600061076f8261069e565b9050600980549050816107829190612923565b90506009818154811061079857610797612954565b5b9060005260206000200180546107ad9061264c565b80601f01602080910402602001604051908101604052809291908181526020018280546107d99061264c565b80156108265780601f106107fb57610100808354040283529160200191610826565b820191906000526020600020905b81548152906001019060200180831161080957829003601f168201915b50505050509350505050919050565b61085083838360405180602001604052806000815250610b32565b505050565b600080610861836115bc565b9050600073ffffffffffffffffffffffffffffffffffffffff168173ffffffffffffffffffffffffffffffffffffffff16036108d2576040517f08c379a00000000000000000000000000000000000000000000000000000000081526004016108c9906129cf565b60405180910390fd5b80915050919050565b60008073ffffffffffffffffffffffffffffffffffffffff168273ffffffffffffffffffffffffffffffffffffffff160361094b576040517f08c379a000000000000000000000000000000000000000000000000000000000815260040161094290612a61565b60405180910390fd5b600360008373ffffffffffffffffffffffffffffffffffffffff1673ffffffffffffffffffffffffffffffffffffffff168152602001908152602001600020549050919050565b6060600180546109a19061264c565b80601f01602080910402602001604051908101604052809291908181526020018280546109cd9061264c565b8015610a1a5780601f106109ef57610100808354040283529160200191610a1a565b820191906000526020600020905b8154815290600101906020018083116109fd57829003601f168201915b5050505050905090565b610a36610a2f61109f565b83836115f9565b5050565b60606000610a6e610a4a846114ee565b604051602001610a5a9190612acd565b60405160208183030381529060405261069e565b9050600a8054905081610a819190612923565b9050600a8181548110610a9757610a96612954565b5b906000526020600020018054610aac9061264c565b80601f0160208091040260200160405190810160405280929190818152602001828054610ad89061264c565b8015610b255780601f10610afa57610100808354040283529160200191610b25565b820191906000526020600020905b815481529060010190602001808311610b0857829003601f168201915b5050505050915050919050565b610b43610b3d61109f565b83611160565b610b82576040517f08c379a0000000000000000000000000000000000000000000000000000000008152600401610b7990612866565b60405180910390fd5b610b8e84848484611765565b50505050565b60606000610bc8610ba4846114ee565b604051602001610bb49190612b3b565b60405160208183030381529060405261069e565b9050600b8054905081610bdb9190612923565b9050600b8181548110610bf157610bf0612954565b5b906000526020600020018054610c069061264c565b80601f0160208091040260200160405190810160405280929190818152602001828054610c329061264c565b8015610c7f5780601f10610c5457610100808354040283529160200191610c7f565b820191906000526020600020905b815481529060010190602001808311610c6257829003601f168201915b5050505050915050919050565b6060610c9782611054565b6000600660008481526020019081526020016000208054610cb79061264c565b80601f0160208091040260200160405190810160405280929190818152602001828054610ce39061264c565b8015610d305780601f10610d0557610100808354040283529160200191610d30565b820191906000526020600020905b815481529060010190602001808311610d1357829003601f168201915b505050505090506000610d416117c1565b90506000815103610d56578192505050610d99565b600082511115610d8b578082604051602001610d73929190612b5d565b60405160208183030381529060405292505050610d99565b610d94846117d8565b925050505b919050565b6000610daa6007611840565b9050610dea6040518060400160405280601581526020017f0a2d2d2d2d2d2d2d2d2d2d2d2d2d2d2d2d2d2d2d2d0000000000000000000000815250610f51565b610e286040518060400160405280601581526020017f2d2d2d2d2d2d2d2d2d2d2d2d2d2d2d2d2d2d2d2d0a0000000000000000000000815250610f51565b610e32338261184e565b610e54816040518060600160405280603581526020016132fb6035913961186c565b610e5e60076118d9565b610e816040518060600160405280602581526020016132d66025913982336118ef565b7febb98688741ffa4c7589bf325de30cf7becb63de567842e1ccdb6cb949fdc82c3382604051610eb2929190612b81565b60405180910390a150565b6000600560008473ffffffffffffffffffffffffffffffffffffffff1673ffffffffffffffffffffffffffffffffffffffff16815260200190815260200160002060008373ffffffffffffffffffffffffffffffffffffffff1673ffffffffffffffffffffffffffffffffffffffff16815260200190815260200160002060009054906101000a900460ff16905092915050565b610fe781604051602401610f6591906120d8565b6040516020818303038152906040527f41304fac000000000000000000000000000000000000000000000000000000007bffffffffffffffffffffffffffffffffffffffffffffffffffffffff19166020820180517bffffffffffffffffffffffffffffffffffffffffffffffffffffffff838183161783525050505061198e565b50565b60007f01ffc9a7000000000000000000000000000000000000000000000000000000007bffffffffffffffffffffffffffffffffffffffffffffffffffffffff1916827bffffffffffffffffffffffffffffffffffffffffffffffffffffffff1916149050919050565b61105d816119b7565b61109c576040517f08c379a0000000000000000000000000000000000000000000000000000000008152600401611093906129cf565b60405180910390fd5b50565b600033905090565b816004600083815260200190815260200160002060006101000a81548173ffffffffffffffffffffffffffffffffffffffff021916908373ffffffffffffffffffffffffffffffffffffffff160217905550808273ffffffffffffffffffffffffffffffffffffffff1661111a83610855565b73ffffffffffffffffffffffffffffffffffffffff167f8c5be1e5ebec7d5bd14f71427d1e84f3dd0314c0f7b2291e5b200ac8c7c3b92560405160405180910390a45050565b60008061116c83610855565b90508073ffffffffffffffffffffffffffffffffffffffff168473ffffffffffffffffffffffffffffffffffffffff1614806111ae57506111ad8185610ebd565b5b806111ec57508373ffffffffffffffffffffffffffffffffffffffff166111d484610541565b73ffffffffffffffffffffffffffffffffffffffff16145b91505092915050565b8273ffffffffffffffffffffffffffffffffffffffff1661121582610855565b73ffffffffffffffffffffffffffffffffffffffff161461126b576040517f08c379a000000000000000000000000000000000000000000000000000000000815260040161126290612c1c565b60405180910390fd5b600073ffffffffffffffffffffffffffffffffffffffff168273ffffffffffffffffffffffffffffffffffffffff16036112da576040517f08c379a00000000000000000000000000000000000000000000000000000000081526004016112d190612cae565b60405180910390fd5b6112e783838360016119f8565b8273ffffffffffffffffffffffffffffffffffffffff1661130782610855565b73ffffffffffffffffffffffffffffffffffffffff161461135d576040517f08c379a000000000000000000000000000000000000000000000000000000000815260040161135490612c1c565b60405180910390fd5b6004600082815260200190815260200160002060006101000a81549073ffffffffffffffffffffffffffffffffffffffff02191690556001600360008573ffffffffffffffffffffffffffffffffffffffff1673ffffffffffffffffffffffffffffffffffffffff168152602001908152602001600020600082825403925050819055506001600360008473ffffffffffffffffffffffffffffffffffffffff1673ffffffffffffffffffffffffffffffffffffffff16815260200190815260200160002060008282540192505081905550816002600083815260200190815260200160002060006101000a81548173ffffffffffffffffffffffffffffffffffffffff021916908373ffffffffffffffffffffffffffffffffffffffff160217905550808273ffffffffffffffffffffffffffffffffffffffff168473ffffffffffffffffffffffffffffffffffffffff167fddf252ad1be2c89b69c2b068fc378daa952ba7f163c4a11628f55a4df523b3ef60405160405180910390a46114e983838360016119fe565b505050565b6060600060016114fd84611a04565b01905060008167ffffffffffffffff81111561151c5761151b61222f565b5b6040519080825280601f01601f19166020018201604052801561154e5781602001600182028036833780820191505090505b509050600082602001820190505b6001156115b1578080600190039150507f3031323334353637383961626364656600000000000000000000000000000000600a86061a8153600a85816115a5576115a46128f4565b5b0494506000850361155c575b819350505050919050565b60006002600083815260200190815260200160002060009054906101000a900473ffffffffffffffffffffffffffffffffffffffff169050919050565b8173ffffffffffffffffffffffffffffffffffffffff168373ffffffffffffffffffffffffffffffffffffffff1603611667576040517f08c379a000000000000000000000000000000000000000000000000000000000815260040161165e90612d1a565b60405180910390fd5b80600560008573ffffffffffffffffffffffffffffffffffffffff1673ffffffffffffffffffffffffffffffffffffffff16815260200190815260200160002060008473ffffffffffffffffffffffffffffffffffffffff1673ffffffffffffffffffffffffffffffffffffffff16815260200190815260200160002060006101000a81548160ff0219169083151502179055508173ffffffffffffffffffffffffffffffffffffffff168373ffffffffffffffffffffffffffffffffffffffff167f17307eab39ab6107e8899845ad3d59bd9653f200f220920489ca2b5937696c3183604051611758919061202d565b60405180910390a3505050565b6117708484846111f5565b61177c84848484611b57565b6117bb576040517f08c379a00000000000000000000000000000000000000000000000000000000081526004016117b290612dac565b60405180910390fd5b50505050565b606060405180602001604052806000815250905090565b60606117e382611054565b60006117ed6117c1565b9050600081511161180d5760405180602001604052806000815250611838565b80611817846114ee565b604051602001611828929190612b5d565b6040516020818303038152906040525b915050919050565b600081600001549050919050565b611868828260405180602001604052806000815250611cde565b5050565b611875826119b7565b6118b4576040517f08c379a00000000000000000000000000000000000000000000000000000000081526004016118ab90612e3e565b60405180910390fd5b806006600084815260200190815260200160002090816118d4919061300a565b505050565b6001816000016000828254019250508190555050565b611989838383604051602401611907939291906130dc565b6040516020818303038152906040527f1c7ec448000000000000000000000000000000000000000000000000000000007bffffffffffffffffffffffffffffffffffffffffffffffffffffffff19166020820180517bffffffffffffffffffffffffffffffffffffffffffffffffffffffff838183161783525050505061198e565b505050565b60008151905060006a636f6e736f6c652e6c6f679050602083016000808483855afa5050505050565b60008073ffffffffffffffffffffffffffffffffffffffff166119d9836115bc565b73ffffffffffffffffffffffffffffffffffffffff1614159050919050565b50505050565b50505050565b600080600090507a184f03e93ff9f4daa797ed6e38ed64bf6a1f0100000000000000008310611a62577a184f03e93ff9f4daa797ed6e38ed64bf6a1f0100000000000000008381611a5857611a576128f4565b5b0492506040810190505b6d04ee2d6d415b85acef81000000008310611a9f576d04ee2d6d415b85acef81000000008381611a9557611a946128f4565b5b0492506020810190505b662386f26fc100008310611ace57662386f26fc100008381611ac457611ac36128f4565b5b0492506010810190505b6305f5e1008310611af7576305f5e1008381611aed57611aec6128f4565b5b0492506008810190505b6127108310611b1c576127108381611b1257611b116128f4565b5b0492506004810190505b60648310611b3f5760648381611b3557611b346128f4565b5b0492506002810190505b600a8310611b4e576001810190505b80915050919050565b6000611b788473ffffffffffffffffffffffffffffffffffffffff16611d39565b15611cd1578373ffffffffffffffffffffffffffffffffffffffff1663150b7a02611ba161109f565b8786866040518563ffffffff1660e01b8152600401611bc3949392919061316f565b6020604051808303816000875af1925050508015611bff57506040513d601f19601f82011682018060405250810190611bfc91906131d0565b60015b611c81573d8060008114611c2f576040519150601f19603f3d011682016040523d82523d6000602084013e611c34565b606091505b506000815103611c79576040517f08c379a0000000000000000000000000000000000000000000000000000000008152600401611c7090612dac565b60405180910390fd5b805181602001fd5b63150b7a0260e01b7bffffffffffffffffffffffffffffffffffffffffffffffffffffffff1916817bffffffffffffffffffffffffffffffffffffffffffffffffffffffff191614915050611cd6565b600190505b949350505050565b611ce88383611d5c565b611cf56000848484611b57565b611d34576040517f08c379a0000000000000000000000000000000000000000000000000000000008152600401611d2b90612dac565b60405180910390fd5b505050565b6000808273ffffffffffffffffffffffffffffffffffffffff163b119050919050565b600073ffffffffffffffffffffffffffffffffffffffff168273ffffffffffffffffffffffffffffffffffffffff1603611dcb576040517f08c379a0000000000000000000000000000000000000000000000000000000008152600401611dc290613249565b60405180910390fd5b611dd4816119b7565b15611e14576040517f08c379a0000000000000000000000000000000000000000000000000000000008152600401611e0b906132b5565b60405180910390fd5b611e226000838360016119f8565b611e2b816119b7565b15611e6b576040517f08c379a0000000000000000000000000000000000000000000000000000000008152600401611e62906132b5565b60405180910390fd5b6001600360008473ffffffffffffffffffffffffffffffffffffffff1673ffffffffffffffffffffffffffffffffffffffff16815260200190815260200160002060008282540192505081905550816002600083815260200190815260200160002060006101000a81548173ffffffffffffffffffffffffffffffffffffffff021916908373ffffffffffffffffffffffffffffffffffffffff160217905550808273ffffffffffffffffffffffffffffffffffffffff16600073ffffffffffffffffffffffffffffffffffffffff167fddf252ad1be2c89b69c2b068fc378daa952ba7f163c4a11628f55a4df523b3ef60405160405180910390a4611f756000838360016119fe565b5050565b6000604051905090565b600080fd5b600080fd5b60007fffffffff0000000000000000000000000000000000000000000000000000000082169050919050565b611fc281611f8d565b8114611fcd57600080fd5b50565b600081359050611fdf81611fb9565b92915050565b600060208284031215611ffb57611ffa611f83565b5b600061200984828501611fd0565b91505092915050565b60008115159050919050565b61202781612012565b82525050565b6000602082019050612042600083018461201e565b92915050565b600081519050919050565b600082825260208201905092915050565b60005b83811015612082578082015181840152602081019050612067565b60008484015250505050565b6000601f19601f8301169050919050565b60006120aa82612048565b6120b48185612053565b93506120c4818560208601612064565b6120cd8161208e565b840191505092915050565b600060208201905081810360008301526120f2818461209f565b905092915050565b6000819050919050565b61210d816120fa565b811461211857600080fd5b50565b60008135905061212a81612104565b92915050565b60006020828403121561214657612145611f83565b5b60006121548482850161211b565b91505092915050565b600073ffffffffffffffffffffffffffffffffffffffff82169050919050565b60006121888261215d565b9050919050565b6121988161217d565b82525050565b60006020820190506121b3600083018461218f565b92915050565b6121c28161217d565b81146121cd57600080fd5b50565b6000813590506121df816121b9565b92915050565b600080604083850312156121fc576121fb611f83565b5b600061220a858286016121d0565b925050602061221b8582860161211b565b9150509250929050565b600080fd5b600080fd5b7f4e487b7100000000000000000000000000000000000000000000000000000000600052604160045260246000fd5b6122678261208e565b810181811067ffffffffffffffff821117156122865761228561222f565b5b80604052505050565b6000612299611f79565b90506122a5828261225e565b919050565b600067ffffffffffffffff8211156122c5576122c461222f565b5b6122ce8261208e565b9050602081019050919050565b82818337600083830152505050565b60006122fd6122f8846122aa565b61228f565b9050828152602081018484840111156123195761231861222a565b5b6123248482856122db565b509392505050565b600082601f83011261234157612340612225565b5b81356123518482602086016122ea565b91505092915050565b6000602082840312156123705761236f611f83565b5b600082013567ffffffffffffffff81111561238e5761238d611f88565b5b61239a8482850161232c565b91505092915050565b6123ac816120fa565b82525050565b60006020820190506123c760008301846123a3565b92915050565b6000806000606084860312156123e6576123e5611f83565b5b60006123f4868287016121d0565b9350506020612405868287016121d0565b92505060406124168682870161211b565b9150509250925092565b60006020828403121561243657612435611f83565b5b6000612444848285016121d0565b91505092915050565b61245681612012565b811461246157600080fd5b50565b6000813590506124738161244d565b92915050565b600080604083850312156124905761248f611f83565b5b600061249e858286016121d0565b92505060206124af85828601612464565b9150509250929050565b600067ffffffffffffffff8211156124d4576124d361222f565b5b6124dd8261208e565b9050602081019050919050565b60006124fd6124f8846124b9565b61228f565b9050828152602081018484840111156125195761251861222a565b5b6125248482856122db565b509392505050565b600082601f83011261254157612540612225565b5b81356125518482602086016124ea565b91505092915050565b6000806000806080858703121561257457612573611f83565b5b6000612582878288016121d0565b9450506020612593878288016121d0565b93505060406125a48782880161211b565b925050606085013567ffffffffffffffff8111156125c5576125c4611f88565b5b6125d18782880161252c565b91505092959194509250565b600080604083850312156125f4576125f3611f83565b5b6000612602858286016121d0565b9250506020612613858286016121d0565b9150509250929050565b7f4e487b7100000000000000000000000000000000000000000000000000000000600052602260045260246000fd5b6000600282049050600182168061266457607f821691505b6020821081036126775761267661261d565b5b50919050565b7f4552433732313a20617070726f76616c20746f2063757272656e74206f776e6560008201527f7200000000000000000000000000000000000000000000000000000000000000602082015250565b60006126d9602183612053565b91506126e48261267d565b604082019050919050565b60006020820190508181036000830152612708816126cc565b9050919050565b7f4552433732313a20617070726f76652063616c6c6572206973206e6f7420746f60008201527f6b656e206f776e6572206f7220617070726f76656420666f7220616c6c000000602082015250565b600061276b603d83612053565b91506127768261270f565b604082019050919050565b6000602082019050818103600083015261279a8161275e565b9050919050565b600081905092915050565b60006127b782612048565b6127c181856127a1565b93506127d1818560208601612064565b80840191505092915050565b60006127e982846127ac565b915081905092915050565b7f4552433732313a2063616c6c6572206973206e6f7420746f6b656e206f776e6560008201527f72206f7220617070726f76656400000000000000000000000000000000000000602082015250565b6000612850602d83612053565b915061285b826127f4565b604082019050919050565b6000602082019050818103600083015261287f81612843565b9050919050565b7f46495253545f574f524400000000000000000000000000000000000000000000600082015250565b60006128bc600a836127a1565b91506128c782612886565b600a82019050919050565b60006128dd826128af565b91506128e982846127ac565b915081905092915050565b7f4e487b7100000000000000000000000000000000000000000000000000000000600052601260045260246000fd5b600061292e826120fa565b9150612939836120fa565b925082612949576129486128f4565b5b828206905092915050565b7f4e487b7100000000000000000000000000000000000000000000000000000000600052603260045260246000fd5b7f4552433732313a20696e76616c696420746f6b656e2049440000000000000000600082015250565b60006129b9601883612053565b91506129c482612983565b602082019050919050565b600060208201905081810360008301526129e8816129ac565b9050919050565b7f4552433732313a2061646472657373207a65726f206973206e6f74206120766160008201527f6c6964206f776e65720000000000000000000000000000000000000000000000602082015250565b6000612a4b602983612053565b9150612a56826129ef565b604082019050919050565b60006020820190508181036000830152612a7a81612a3e565b9050919050565b7f5345434f4e445f574f5244000000000000000000000000000000000000000000600082015250565b6000612ab7600b836127a1565b9150612ac282612a81565b600b82019050919050565b6000612ad882612aaa565b9150612ae482846127ac565b915081905092915050565b7f54484952445f574f524400000000000000000000000000000000000000000000600082015250565b6000612b25600a836127a1565b9150612b3082612aef565b600a82019050919050565b6000612b4682612b18565b9150612b5282846127ac565b915081905092915050565b6000612b6982856127ac565b9150612b7582846127ac565b91508190509392505050565b6000604082019050612b96600083018561218f565b612ba360208301846123a3565b9392505050565b7f4552433732313a207472616e736665722066726f6d20696e636f72726563742060008201527f6f776e6572000000000000000000000000000000000000000000000000000000602082015250565b6000612c06602583612053565b9150612c1182612baa565b604082019050919050565b60006020820190508181036000830152612c3581612bf9565b9050919050565b7f4552433732313a207472616e7366657220746f20746865207a65726f2061646460008201527f7265737300000000000000000000000000000000000000000000000000000000602082015250565b6000612c98602483612053565b9150612ca382612c3c565b604082019050919050565b60006020820190508181036000830152612cc781612c8b565b9050919050565b7f4552433732313a20617070726f766520746f2063616c6c657200000000000000600082015250565b6000612d04601983612053565b9150612d0f82612cce565b602082019050919050565b60006020820190508181036000830152612d3381612cf7565b9050919050565b7f4552433732313a207472616e7366657220746f206e6f6e20455243373231526560008201527f63656976657220696d706c656d656e7465720000000000000000000000000000602082015250565b6000612d96603283612053565b9150612da182612d3a565b604082019050919050565b60006020820190508181036000830152612dc581612d89565b9050919050565b7f45524337323155524953746f726167653a2055524920736574206f66206e6f6e60008201527f6578697374656e7420746f6b656e000000000000000000000000000000000000602082015250565b6000612e28602e83612053565b9150612e3382612dcc565b604082019050919050565b60006020820190508181036000830152612e5781612e1b565b9050919050565b60008190508160005260206000209050919050565b60006020601f8301049050919050565b600082821b905092915050565b600060088302612ec07fffffffffffffffffffffffffffffffffffffffffffffffffffffffffffffffff82612e83565b612eca8683612e83565b95508019841693508086168417925050509392505050565b6000819050919050565b6000612f07612f02612efd846120fa565b612ee2565b6120fa565b9050919050565b6000819050919050565b612f2183612eec565b612f35612f2d82612f0e565b848454612e90565b825550505050565b600090565b612f4a612f3d565b612f55818484612f18565b505050565b5b81811015612f7957612f6e600082612f42565b600181019050612f5b565b5050565b601f821115612fbe57612f8f81612e5e565b612f9884612e73565b81016020851015612fa7578190505b612fbb612fb385612e73565b830182612f5a565b50505b505050565b600082821c905092915050565b6000612fe160001984600802612fc3565b1980831691505092915050565b6000612ffa8383612fd0565b9150826002028217905092915050565b61301382612048565b67ffffffffffffffff81111561302c5761302b61222f565b5b613036825461264c565b613041828285612f7d565b600060209050601f8311600181146130745760008415613062578287015190505b61306c8582612fee565b8655506130d4565b601f19841661308286612e5e565b60005b828110156130aa57848901518255600182019150602085019450602081019050613085565b868310156130c757848901516130c3601f891682612fd0565b8355505b6001600288020188555050505b505050505050565b600060608201905081810360008301526130f6818661209f565b905061310560208301856123a3565b613112604083018461218f565b949350505050565b600081519050919050565b600082825260208201905092915050565b60006131418261311a565b61314b8185613125565b935061315b818560208601612064565b6131648161208e565b840191505092915050565b6000608082019050613184600083018761218f565b613191602083018661218f565b61319e60408301856123a3565b81810360608301526131b08184613136565b905095945050505050565b6000815190506131ca81611fb9565b92915050565b6000602082840312156131e6576131e5611f83565b5b60006131f4848285016131bb565b91505092915050565b7f4552433732313a206d696e7420746f20746865207a65726f2061646472657373600082015250565b6000613233602083612053565b915061323e826131fd565b602082019050919050565b6000602082019050818103600083015261326281613226565b9050919050565b7f4552433732313a20746f6b656e20616c7265616479206d696e74656400000000600082015250565b600061329f601c83612053565b91506132aa82613269565b602082019050919050565b600060208201905081810360008301526132ce81613292565b905091905056fe416e204e465420772f20494420257320686173206265656e206d696e74656420746f202573697066733a2f2f516d6157365a50444c684a314e3465797177784756373231433259694a4533396b4d76316b47434a376b59774274a26469706673582212208788861e1baa2547920d70a05dbe0085196a3413cd47fabfcb69cbcc71e5a56364736f6c634300081100333c73766720786d6c6e733d27687474703a2f2f7777772e77332e6f72672f323030302f73766727207072657365727665417370656374526174696f3d27784d696e594d696e206d656574272076696577426f783d273020302033353020333530273e3c7374796c653e2e62617365207b2066696c6c3a2077686974653b20666f6e742d66616d696c793a2073657269663b20666f6e742d73697a653a20323470783b207d3c2f7374796c653e3c726563742077696474683d273130302527206865696768743d2731303025272066696c6c3d27626c61636b27202f3e3c7465787420783d273530252720793d273530252720636c6173733d27626173652720646f6d696e616e742d626173656c696e653d276d6964646c652720746578742d616e63686f723d276d6964646c65273e",
    "linkReferences": {},
    "deployedLinkReferences": {}
}