{
    "_format": "hh-sol-artifact-1",
    "contractName": "MintTicket",
    "sourceName": "contracts/MintTicket.sol",
    "abi": [
        {
            "inputs": [],
            "stateMutability": "nonpayable",
            "type": "constructor"
        },
        {
            "anonymous": false,
            "inputs": [
                {
                    "indexed": true,
                    "internalType": "address",
                    "name": "owner",
                    "type": "address"
                },
                {
                    "indexed": true,
                    "internalType": "address",
                    "name": "approved",
                    "type": "address"
                },
                {
                    "indexed": true,
                    "internalType": "uint256",
                    "name": "tokenId",
                    "type": "uint256"
                }
            ],
            "name": "Approval",
            "type": "event"
        },
        {
            "anonymous": false,
            "inputs": [
                {
                    "indexed": true,
                    "internalType": "address",
                    "name": "owner",
                    "type": "address"
                },
                {
                    "indexed": true,
                    "internalType": "address",
                    "name": "operator",
                    "type": "address"
                },
                {
                    "indexed": false,
                    "internalType": "bool",
                    "name": "approved",
                    "type": "bool"
                }
            ],
            "name": "ApprovalForAll",
            "type": "event"
        },
        {
            "anonymous": false,
            "inputs": [
                {
                    "indexed": false,
                    "internalType": "uint256",
                    "name": "_fromTokenId",
                    "type": "uint256"
                },
                {
                    "indexed": false,
                    "internalType": "uint256",
                    "name": "_toTokenId",
                    "type": "uint256"
                }
            ],
            "name": "BatchMetadataUpdate",
            "type": "event"
        },
        {
            "anonymous": false,
            "inputs": [
                {
                    "indexed": false,
                    "internalType": "uint256",
                    "name": "_tokenId",
                    "type": "uint256"
                }
            ],
            "name": "MetadataUpdate",
            "type": "event"
        },
        {
            "anonymous": false,
            "inputs": [
                {
                    "indexed": true,
                    "internalType": "address",
                    "name": "previousOwner",
                    "type": "address"
                },
                {
                    "indexed": true,
                    "internalType": "address",
                    "name": "newOwner",
                    "type": "address"
                }
            ],
            "name": "OwnershipTransferred",
            "type": "event"
        },
        {
            "anonymous": false,
            "inputs": [
                {
                    "indexed": true,
                    "internalType": "address",
                    "name": "from",
                    "type": "address"
                },
                {
                    "indexed": true,
                    "internalType": "address",
                    "name": "to",
                    "type": "address"
                },
                {
                    "indexed": true,
                    "internalType": "uint256",
                    "name": "tokenId",
                    "type": "uint256"
                }
            ],
            "name": "Transfer",
            "type": "event"
        },
        {
            "inputs": [],
            "name": "MINT_PRICE",
            "outputs": [
                {
                    "internalType": "uint256",
                    "name": "",
                    "type": "uint256"
                }
            ],
            "stateMutability": "view",
            "type": "function"
        },
        {
            "inputs": [
                {
                    "internalType": "address",
                    "name": "to",
                    "type": "address"
                },
                {
                    "internalType": "uint256",
                    "name": "tokenId",
                    "type": "uint256"
                }
            ],
            "name": "approve",
            "outputs": [],
            "stateMutability": "nonpayable",
            "type": "function"
        },
        {
            "inputs": [
                {
                    "internalType": "address",
                    "name": "owner",
                    "type": "address"
                }
            ],
            "name": "balanceOf",
            "outputs": [
                {
                    "internalType": "uint256",
                    "name": "",
                    "type": "uint256"
                }
            ],
            "stateMutability": "view",
            "type": "function"
        },
        {
            "inputs": [
                {
                    "internalType": "uint256",
                    "name": "tokenId",
                    "type": "uint256"
                }
            ],
            "name": "getApproved",
            "outputs": [
                {
                    "internalType": "address",
                    "name": "",
                    "type": "address"
                }
            ],
            "stateMutability": "view",
            "type": "function"
        },
        {
            "inputs": [
                {
                    "internalType": "address",
                    "name": "owner",
                    "type": "address"
                },
                {
                    "internalType": "address",
                    "name": "operator",
                    "type": "address"
                }
            ],
            "name": "isApprovedForAll",
            "outputs": [
                {
                    "internalType": "bool",
                    "name": "",
                    "type": "bool"
                }
            ],
            "stateMutability": "view",
            "type": "function"
        },
        {
            "inputs": [],
            "name": "mintNFTTicket",
            "outputs": [],
            "stateMutability": "payable",
            "type": "function"
        },
        {
            "inputs": [],
            "name": "name",
            "outputs": [
                {
                    "internalType": "string",
                    "name": "",
                    "type": "string"
                }
            ],
            "stateMutability": "view",
            "type": "function"
        },
        {
            "inputs": [],
            "name": "owner",
            "outputs": [
                {
                    "internalType": "address",
                    "name": "",
                    "type": "address"
                }
            ],
            "stateMutability": "view",
            "type": "function"
        },
        {
            "inputs": [
                {
                    "internalType": "uint256",
                    "name": "tokenId",
                    "type": "uint256"
                }
            ],
            "name": "ownerOf",
            "outputs": [
                {
                    "internalType": "address",
                    "name": "",
                    "type": "address"
                }
            ],
            "stateMutability": "view",
            "type": "function"
        },
        {
            "inputs": [],
            "name": "renounceOwnership",
            "outputs": [],
            "stateMutability": "nonpayable",
            "type": "function"
        },
        {
            "inputs": [
                {
                    "internalType": "address",
                    "name": "from",
                    "type": "address"
                },
                {
                    "internalType": "address",
                    "name": "to",
                    "type": "address"
                },
                {
                    "internalType": "uint256",
                    "name": "tokenId",
                    "type": "uint256"
                }
            ],
            "name": "safeTransferFrom",
            "outputs": [],
            "stateMutability": "nonpayable",
            "type": "function"
        },
        {
            "inputs": [
                {
                    "internalType": "address",
                    "name": "from",
                    "type": "address"
                },
                {
                    "internalType": "address",
                    "name": "to",
                    "type": "address"
                },
                {
                    "internalType": "uint256",
                    "name": "tokenId",
                    "type": "uint256"
                },
                {
                    "internalType": "bytes",
                    "name": "data",
                    "type": "bytes"
                }
            ],
            "name": "safeTransferFrom",
            "outputs": [],
            "stateMutability": "nonpayable",
            "type": "function"
        },
        {
            "inputs": [
                {
                    "internalType": "address",
                    "name": "operator",
                    "type": "address"
                },
                {
                    "internalType": "bool",
                    "name": "approved",
                    "type": "bool"
                }
            ],
            "name": "setApprovalForAll",
            "outputs": [],
            "stateMutability": "nonpayable",
            "type": "function"
        },
        {
            "inputs": [
                {
                    "internalType": "uint256",
                    "name": "_price",
                    "type": "uint256"
                }
            ],
            "name": "setMintPrice",
            "outputs": [],
            "stateMutability": "nonpayable",
            "type": "function"
        },
        {
            "inputs": [
                {
                    "internalType": "bytes4",
                    "name": "interfaceId",
                    "type": "bytes4"
                }
            ],
            "name": "supportsInterface",
            "outputs": [
                {
                    "internalType": "bool",
                    "name": "",
                    "type": "bool"
                }
            ],
            "stateMutability": "view",
            "type": "function"
        },
        {
            "inputs": [],
            "name": "symbol",
            "outputs": [
                {
                    "internalType": "string",
                    "name": "",
                    "type": "string"
                }
            ],
            "stateMutability": "view",
            "type": "function"
        },
        {
            "inputs": [
                {
                    "internalType": "uint256",
                    "name": "tokenId",
                    "type": "uint256"
                }
            ],
            "name": "tokenURI",
            "outputs": [
                {
                    "internalType": "string",
                    "name": "",
                    "type": "string"
                }
            ],
            "stateMutability": "view",
            "type": "function"
        },
        {
            "inputs": [
                {
                    "internalType": "address",
                    "name": "from",
                    "type": "address"
                },
                {
                    "internalType": "address",
                    "name": "to",
                    "type": "address"
                },
                {
                    "internalType": "uint256",
                    "name": "tokenId",
                    "type": "uint256"
                }
            ],
            "name": "transferFrom",
            "outputs": [],
            "stateMutability": "nonpayable",
            "type": "function"
        },
        {
            "inputs": [
                {
                    "internalType": "address",
                    "name": "newOwner",
                    "type": "address"
                }
            ],
            "name": "transferOwnership",
            "outputs": [],
            "stateMutability": "nonpayable",
            "type": "function"
        }
    ],
    "bytecode": "0x60806040526701cdda4faccd00006009553480156200001d57600080fd5b506040518060400160405280602081526020017f5377696674205469636b65747320285461796c6f7227732056657273696f6e298152506040518060400160405280600581526020017f535749465400000000000000000000000000000000000000000000000000000081525081600090816200009b919062000576565b508060019081620000ad919062000576565b505050620000d0620000c46200012160201b60201c565b6200012960201b60201c565b6200011b6040518060400160405280600c81526020017f506c6561736520776f726b210000000000000000000000000000000000000000815250620001ef60201b62000c9c1760201c565b6200073f565b600033905090565b6000600760009054906101000a900473ffffffffffffffffffffffffffffffffffffffff16905081600760006101000a81548173ffffffffffffffffffffffffffffffffffffffff021916908373ffffffffffffffffffffffffffffffffffffffff1602179055508173ffffffffffffffffffffffffffffffffffffffff168173ffffffffffffffffffffffffffffffffffffffff167f8be0079c531659141344cd1fd0a4f28419497f9722a3daafe3b4186f6b6457e060405160405180910390a35050565b6200028f81604051602401620002069190620006ec565b6040516020818303038152906040527f41304fac000000000000000000000000000000000000000000000000000000007bffffffffffffffffffffffffffffffffffffffffffffffffffffffff19166020820180517bffffffffffffffffffffffffffffffffffffffffffffffffffffffff83818316178352505050506200029260201b60201c565b50565b620002b881620002b3620002bb60201b62000d3517620002dc60201b60201c565b60201c565b50565b60006a636f6e736f6c652e6c6f679050600080835160208501845afa505050565b620002f060201b62001e7b17819050919050565b620002fa62000710565b565b600081519050919050565b7f4e487b7100000000000000000000000000000000000000000000000000000000600052604160045260246000fd5b7f4e487b7100000000000000000000000000000000000000000000000000000000600052602260045260246000fd5b600060028204905060018216806200037e57607f821691505b60208210810362000394576200039362000336565b5b50919050565b60008190508160005260206000209050919050565b60006020601f8301049050919050565b600082821b905092915050565b600060088302620003fe7fffffffffffffffffffffffffffffffffffffffffffffffffffffffffffffffff82620003bf565b6200040a8683620003bf565b95508019841693508086168417925050509392505050565b6000819050919050565b6000819050919050565b600062000457620004516200044b8462000422565b6200042c565b62000422565b9050919050565b6000819050919050565b620004738362000436565b6200048b62000482826200045e565b848454620003cc565b825550505050565b600090565b620004a262000493565b620004af81848462000468565b505050565b5b81811015620004d757620004cb60008262000498565b600181019050620004b5565b5050565b601f8211156200052657620004f0816200039a565b620004fb84620003af565b810160208510156200050b578190505b620005236200051a85620003af565b830182620004b4565b50505b505050565b600082821c905092915050565b60006200054b600019846008026200052b565b1980831691505092915050565b600062000566838362000538565b9150826002028217905092915050565b6200058182620002fc565b67ffffffffffffffff8111156200059d576200059c62000307565b5b620005a9825462000365565b620005b6828285620004db565b600060209050601f831160018114620005ee5760008415620005d9578287015190505b620005e5858262000558565b86555062000655565b601f198416620005fe866200039a565b60005b82811015620006285784890151825560018201915060208501945060208101905062000601565b8683101562000648578489015162000644601f89168262000538565b8355505b6001600288020188555050505b505050505050565b600082825260208201905092915050565b60005b838110156200068e57808201518184015260208101905062000671565b60008484015250505050565b6000601f19601f8301169050919050565b6000620006b882620002fc565b620006c481856200065d565b9350620006d68185602086016200066e565b620006e1816200069a565b840191505092915050565b60006020820190508181036000830152620007088184620006ab565b905092915050565b7f4e487b7100000000000000000000000000000000000000000000000000000000600052605160045260246000fd5b61314a806200074f6000396000f3fe6080604052600436106101145760003560e01c8063715018a6116100a0578063c002d23d11610064578063c002d23d1461037c578063c87b56dd146103a7578063e985e9c5146103e4578063f2fde38b14610421578063f4a0a5281461044a57610114565b8063715018a6146102bd5780638da5cb5b146102d457806395d89b41146102ff578063a22cb4651461032a578063b88d4fde1461035357610114565b80631d22124c116100e75780631d22124c146101e757806323b872dd146101f157806342842e0e1461021a5780636352211e1461024357806370a082311461028057610114565b806301ffc9a71461011957806306fdde0314610156578063081812fc14610181578063095ea7b3146101be575b600080fd5b34801561012557600080fd5b50610140600480360381019061013b9190611ef1565b610473565b60405161014d9190611f39565b60405180910390f35b34801561016257600080fd5b5061016b6104d4565b6040516101789190611fe4565b60405180910390f35b34801561018d57600080fd5b506101a860048036038101906101a3919061203c565b610566565b6040516101b591906120aa565b60405180910390f35b3480156101ca57600080fd5b506101e560048036038101906101e091906120f1565b6105ac565b005b6101ef6106c3565b005b3480156101fd57600080fd5b5061021860048036038101906102139190612131565b610756565b005b34801561022657600080fd5b50610241600480360381019061023c9190612131565b6107b6565b005b34801561024f57600080fd5b5061026a6004803603810190610265919061203c565b6107d6565b60405161027791906120aa565b60405180910390f35b34801561028c57600080fd5b506102a760048036038101906102a29190612184565b61085c565b6040516102b491906121c0565b60405180910390f35b3480156102c957600080fd5b506102d2610913565b005b3480156102e057600080fd5b506102e9610927565b6040516102f691906120aa565b60405180910390f35b34801561030b57600080fd5b50610314610951565b6040516103219190611fe4565b60405180910390f35b34801561033657600080fd5b50610351600480360381019061034c9190612207565b6109e3565b005b34801561035f57600080fd5b5061037a6004803603810190610375919061237c565b6109f9565b005b34801561038857600080fd5b50610391610a5b565b60405161039e91906121c0565b60405180910390f35b3480156103b357600080fd5b506103ce60048036038101906103c9919061203c565b610a61565b6040516103db9190611fe4565b60405180910390f35b3480156103f057600080fd5b5061040b600480360381019061040691906123ff565b610b73565b6040516104189190611f39565b60405180910390f35b34801561042d57600080fd5b5061044860048036038101906104439190612184565b610c07565b005b34801561045657600080fd5b50610471600480360381019061046c919061203c565b610c8a565b005b6000634906490660e01b7bffffffffffffffffffffffffffffffffffffffffffffffffffffffff1916827bffffffffffffffffffffffffffffffffffffffffffffffffffffffff191614806104cd57506104cc82610d56565b5b9050919050565b6060600080546104e39061246e565b80601f016020809104026020016040519081016040528092919081815260200182805461050f9061246e565b801561055c5780601f106105315761010080835404028352916020019161055c565b820191906000526020600020905b81548152906001019060200180831161053f57829003601f168201915b5050505050905090565b600061057182610e38565b6004600083815260200190815260200160002060009054906101000a900473ffffffffffffffffffffffffffffffffffffffff169050919050565b60006105b7826107d6565b90508073ffffffffffffffffffffffffffffffffffffffff168373ffffffffffffffffffffffffffffffffffffffff1603610627576040517f08c379a000000000000000000000000000000000000000000000000000000000815260040161061e90612511565b60405180910390fd5b8073ffffffffffffffffffffffffffffffffffffffff16610646610e83565b73ffffffffffffffffffffffffffffffffffffffff16148061067557506106748161066f610e83565b610b73565b5b6106b4576040517f08c379a00000000000000000000000000000000000000000000000000000000081526004016106ab906125a3565b60405180910390fd5b6106be8383610e8b565b505050565b600954341015610708576040517f08c379a00000000000000000000000000000000000000000000000000000000081526004016106ff9061260f565b60405180910390fd5b600060085490506107193382610f44565b61073b816040518060600160405280603581526020016130e060359139610f62565b6008600081548092919061074e9061265e565b919050555050565b610767610761610e83565b82611006565b6107a6576040517f08c379a000000000000000000000000000000000000000000000000000000000815260040161079d90612718565b60405180910390fd5b6107b183838361109b565b505050565b6107d1838383604051806020016040528060008152506109f9565b505050565b6000806107e283611394565b9050600073ffffffffffffffffffffffffffffffffffffffff168173ffffffffffffffffffffffffffffffffffffffff1603610853576040517f08c379a000000000000000000000000000000000000000000000000000000000815260040161084a90612784565b60405180910390fd5b80915050919050565b60008073ffffffffffffffffffffffffffffffffffffffff168273ffffffffffffffffffffffffffffffffffffffff16036108cc576040517f08c379a00000000000000000000000000000000000000000000000000000000081526004016108c390612816565b60405180910390fd5b600360008373ffffffffffffffffffffffffffffffffffffffff1673ffffffffffffffffffffffffffffffffffffffff168152602001908152602001600020549050919050565b61091b6113d1565b610925600061144f565b565b6000600760009054906101000a900473ffffffffffffffffffffffffffffffffffffffff16905090565b6060600180546109609061246e565b80601f016020809104026020016040519081016040528092919081815260200182805461098c9061246e565b80156109d95780601f106109ae576101008083540402835291602001916109d9565b820191906000526020600020905b8154815290600101906020018083116109bc57829003601f168201915b5050505050905090565b6109f56109ee610e83565b8383611515565b5050565b610a0a610a04610e83565b83611006565b610a49576040517f08c379a0000000000000000000000000000000000000000000000000000000008152600401610a4090612718565b60405180910390fd5b610a5584848484611681565b50505050565b60095481565b6060610a6c82610e38565b6000600660008481526020019081526020016000208054610a8c9061246e565b80601f0160208091040260200160405190810160405280929190818152602001828054610ab89061246e565b8015610b055780601f10610ada57610100808354040283529160200191610b05565b820191906000526020600020905b815481529060010190602001808311610ae857829003601f168201915b505050505090506000610b166116dd565b90506000815103610b2b578192505050610b6e565b600082511115610b60578082604051602001610b48929190612872565b60405160208183030381529060405292505050610b6e565b610b69846116f4565b925050505b919050565b6000600560008473ffffffffffffffffffffffffffffffffffffffff1673ffffffffffffffffffffffffffffffffffffffff16815260200190815260200160002060008373ffffffffffffffffffffffffffffffffffffffff1673ffffffffffffffffffffffffffffffffffffffff16815260200190815260200160002060009054906101000a900460ff16905092915050565b610c0f6113d1565b600073ffffffffffffffffffffffffffffffffffffffff168173ffffffffffffffffffffffffffffffffffffffff1603610c7e576040517f08c379a0000000000000000000000000000000000000000000000000000000008152600401610c7590612908565b60405180910390fd5b610c878161144f565b50565b610c926113d1565b8060098190555050565b610d3281604051602401610cb09190611fe4565b6040516020818303038152906040527f41304fac000000000000000000000000000000000000000000000000000000007bffffffffffffffffffffffffffffffffffffffffffffffffffffffff19166020820180517bffffffffffffffffffffffffffffffffffffffffffffffffffffffff838183161783525050505061175c565b50565b60006a636f6e736f6c652e6c6f679050600080835160208501845afa505050565b60007f80ac58cd000000000000000000000000000000000000000000000000000000007bffffffffffffffffffffffffffffffffffffffffffffffffffffffff1916827bffffffffffffffffffffffffffffffffffffffffffffffffffffffff19161480610e2157507f5b5e139f000000000000000000000000000000000000000000000000000000007bffffffffffffffffffffffffffffffffffffffffffffffffffffffff1916827bffffffffffffffffffffffffffffffffffffffffffffffffffffffff1916145b80610e315750610e3082611776565b5b9050919050565b610e41816117e0565b610e80576040517f08c379a0000000000000000000000000000000000000000000000000000000008152600401610e7790612784565b60405180910390fd5b50565b600033905090565b816004600083815260200190815260200160002060006101000a81548173ffffffffffffffffffffffffffffffffffffffff021916908373ffffffffffffffffffffffffffffffffffffffff160217905550808273ffffffffffffffffffffffffffffffffffffffff16610efe836107d6565b73ffffffffffffffffffffffffffffffffffffffff167f8c5be1e5ebec7d5bd14f71427d1e84f3dd0314c0f7b2291e5b200ac8c7c3b92560405160405180910390a45050565b610f5e828260405180602001604052806000815250611821565b5050565b610f6b826117e0565b610faa576040517f08c379a0000000000000000000000000000000000000000000000000000000008152600401610fa19061299a565b60405180910390fd5b80600660008481526020019081526020016000209081610fca9190612b66565b507ff8e1a15aba9398e019f0b49df1a4fde98ee17ae345cb5f6b5e2c27f5033e8ce782604051610ffa91906121c0565b60405180910390a15050565b600080611012836107d6565b90508073ffffffffffffffffffffffffffffffffffffffff168473ffffffffffffffffffffffffffffffffffffffff16148061105457506110538185610b73565b5b8061109257508373ffffffffffffffffffffffffffffffffffffffff1661107a84610566565b73ffffffffffffffffffffffffffffffffffffffff16145b91505092915050565b8273ffffffffffffffffffffffffffffffffffffffff166110bb826107d6565b73ffffffffffffffffffffffffffffffffffffffff1614611111576040517f08c379a000000000000000000000000000000000000000000000000000000000815260040161110890612caa565b60405180910390fd5b600073ffffffffffffffffffffffffffffffffffffffff168273ffffffffffffffffffffffffffffffffffffffff1603611180576040517f08c379a000000000000000000000000000000000000000000000000000000000815260040161117790612d3c565b60405180910390fd5b61118d838383600161187c565b8273ffffffffffffffffffffffffffffffffffffffff166111ad826107d6565b73ffffffffffffffffffffffffffffffffffffffff1614611203576040517f08c379a00000000000000000000000000000000000000000000000000000000081526004016111fa90612caa565b60405180910390fd5b6004600082815260200190815260200160002060006101000a81549073ffffffffffffffffffffffffffffffffffffffff02191690556001600360008573ffffffffffffffffffffffffffffffffffffffff1673ffffffffffffffffffffffffffffffffffffffff168152602001908152602001600020600082825403925050819055506001600360008473ffffffffffffffffffffffffffffffffffffffff1673ffffffffffffffffffffffffffffffffffffffff16815260200190815260200160002060008282540192505081905550816002600083815260200190815260200160002060006101000a81548173ffffffffffffffffffffffffffffffffffffffff021916908373ffffffffffffffffffffffffffffffffffffffff160217905550808273ffffffffffffffffffffffffffffffffffffffff168473ffffffffffffffffffffffffffffffffffffffff167fddf252ad1be2c89b69c2b068fc378daa952ba7f163c4a11628f55a4df523b3ef60405160405180910390a461138f8383836001611882565b505050565b60006002600083815260200190815260200160002060009054906101000a900473ffffffffffffffffffffffffffffffffffffffff169050919050565b6113d9610e83565b73ffffffffffffffffffffffffffffffffffffffff166113f7610927565b73ffffffffffffffffffffffffffffffffffffffff161461144d576040517f08c379a000000000000000000000000000000000000000000000000000000000815260040161144490612da8565b60405180910390fd5b565b6000600760009054906101000a900473ffffffffffffffffffffffffffffffffffffffff16905081600760006101000a81548173ffffffffffffffffffffffffffffffffffffffff021916908373ffffffffffffffffffffffffffffffffffffffff1602179055508173ffffffffffffffffffffffffffffffffffffffff168173ffffffffffffffffffffffffffffffffffffffff167f8be0079c531659141344cd1fd0a4f28419497f9722a3daafe3b4186f6b6457e060405160405180910390a35050565b8173ffffffffffffffffffffffffffffffffffffffff168373ffffffffffffffffffffffffffffffffffffffff1603611583576040517f08c379a000000000000000000000000000000000000000000000000000000000815260040161157a90612e14565b60405180910390fd5b80600560008573ffffffffffffffffffffffffffffffffffffffff1673ffffffffffffffffffffffffffffffffffffffff16815260200190815260200160002060008473ffffffffffffffffffffffffffffffffffffffff1673ffffffffffffffffffffffffffffffffffffffff16815260200190815260200160002060006101000a81548160ff0219169083151502179055508173ffffffffffffffffffffffffffffffffffffffff168373ffffffffffffffffffffffffffffffffffffffff167f17307eab39ab6107e8899845ad3d59bd9653f200f220920489ca2b5937696c31836040516116749190611f39565b60405180910390a3505050565b61168c84848461109b565b61169884848484611888565b6116d7576040517f08c379a00000000000000000000000000000000000000000000000000000000081526004016116ce90612ea6565b60405180910390fd5b50505050565b606060405180602001604052806000815250905090565b60606116ff82610e38565b60006117096116dd565b905060008151116117295760405180602001604052806000815250611754565b8061173384611a0f565b604051602001611744929190612872565b6040516020818303038152906040525b915050919050565b6117738161176b610d35611add565b63ffffffff16565b50565b60007f01ffc9a7000000000000000000000000000000000000000000000000000000007bffffffffffffffffffffffffffffffffffffffffffffffffffffffff1916827bffffffffffffffffffffffffffffffffffffffffffffffffffffffff1916149050919050565b60008073ffffffffffffffffffffffffffffffffffffffff1661180283611394565b73ffffffffffffffffffffffffffffffffffffffff1614159050919050565b61182b8383611ae8565b6118386000848484611888565b611877576040517f08c379a000000000000000000000000000000000000000000000000000000000815260040161186e90612ea6565b60405180910390fd5b505050565b50505050565b50505050565b60006118a98473ffffffffffffffffffffffffffffffffffffffff16611d05565b15611a02578373ffffffffffffffffffffffffffffffffffffffff1663150b7a026118d2610e83565b8786866040518563ffffffff1660e01b81526004016118f49493929190612f1b565b6020604051808303816000875af192505050801561193057506040513d601f19601f8201168201806040525081019061192d9190612f7c565b60015b6119b2573d8060008114611960576040519150601f19603f3d011682016040523d82523d6000602084013e611965565b606091505b5060008151036119aa576040517f08c379a00000000000000000000000000000000000000000000000000000000081526004016119a190612ea6565b60405180910390fd5b805181602001fd5b63150b7a0260e01b7bffffffffffffffffffffffffffffffffffffffffffffffffffffffff1916817bffffffffffffffffffffffffffffffffffffffffffffffffffffffff191614915050611a07565b600190505b949350505050565b606060006001611a1e84611d28565b01905060008167ffffffffffffffff811115611a3d57611a3c612251565b5b6040519080825280601f01601f191660200182016040528015611a6f5781602001600182028036833780820191505090505b509050600082602001820190505b600115611ad2578080600190039150507f3031323334353637383961626364656600000000000000000000000000000000600a86061a8153600a8581611ac657611ac5612fa9565b5b04945060008503611a7d575b819350505050919050565b611e7b819050919050565b600073ffffffffffffffffffffffffffffffffffffffff168273ffffffffffffffffffffffffffffffffffffffff1603611b57576040517f08c379a0000000000000000000000000000000000000000000000000000000008152600401611b4e90613024565b60405180910390fd5b611b60816117e0565b15611ba0576040517f08c379a0000000000000000000000000000000000000000000000000000000008152600401611b9790613090565b60405180910390fd5b611bae60008383600161187c565b611bb7816117e0565b15611bf7576040517f08c379a0000000000000000000000000000000000000000000000000000000008152600401611bee90613090565b60405180910390fd5b6001600360008473ffffffffffffffffffffffffffffffffffffffff1673ffffffffffffffffffffffffffffffffffffffff16815260200190815260200160002060008282540192505081905550816002600083815260200190815260200160002060006101000a81548173ffffffffffffffffffffffffffffffffffffffff021916908373ffffffffffffffffffffffffffffffffffffffff160217905550808273ffffffffffffffffffffffffffffffffffffffff16600073ffffffffffffffffffffffffffffffffffffffff167fddf252ad1be2c89b69c2b068fc378daa952ba7f163c4a11628f55a4df523b3ef60405160405180910390a4611d01600083836001611882565b5050565b6000808273ffffffffffffffffffffffffffffffffffffffff163b119050919050565b600080600090507a184f03e93ff9f4daa797ed6e38ed64bf6a1f0100000000000000008310611d86577a184f03e93ff9f4daa797ed6e38ed64bf6a1f0100000000000000008381611d7c57611d7b612fa9565b5b0492506040810190505b6d04ee2d6d415b85acef81000000008310611dc3576d04ee2d6d415b85acef81000000008381611db957611db8612fa9565b5b0492506020810190505b662386f26fc100008310611df257662386f26fc100008381611de857611de7612fa9565b5b0492506010810190505b6305f5e1008310611e1b576305f5e1008381611e1157611e10612fa9565b5b0492506008810190505b6127108310611e40576127108381611e3657611e35612fa9565b5b0492506004810190505b60648310611e635760648381611e5957611e58612fa9565b5b0492506002810190505b600a8310611e72576001810190505b80915050919050565b611e836130b0565b565b6000604051905090565b600080fd5b600080fd5b60007fffffffff0000000000000000000000000000000000000000000000000000000082169050919050565b611ece81611e99565b8114611ed957600080fd5b50565b600081359050611eeb81611ec5565b92915050565b600060208284031215611f0757611f06611e8f565b5b6000611f1584828501611edc565b91505092915050565b60008115159050919050565b611f3381611f1e565b82525050565b6000602082019050611f4e6000830184611f2a565b92915050565b600081519050919050565b600082825260208201905092915050565b60005b83811015611f8e578082015181840152602081019050611f73565b60008484015250505050565b6000601f19601f8301169050919050565b6000611fb682611f54565b611fc08185611f5f565b9350611fd0818560208601611f70565b611fd981611f9a565b840191505092915050565b60006020820190508181036000830152611ffe8184611fab565b905092915050565b6000819050919050565b61201981612006565b811461202457600080fd5b50565b60008135905061203681612010565b92915050565b60006020828403121561205257612051611e8f565b5b600061206084828501612027565b91505092915050565b600073ffffffffffffffffffffffffffffffffffffffff82169050919050565b600061209482612069565b9050919050565b6120a481612089565b82525050565b60006020820190506120bf600083018461209b565b92915050565b6120ce81612089565b81146120d957600080fd5b50565b6000813590506120eb816120c5565b92915050565b6000806040838503121561210857612107611e8f565b5b6000612116858286016120dc565b925050602061212785828601612027565b9150509250929050565b60008060006060848603121561214a57612149611e8f565b5b6000612158868287016120dc565b9350506020612169868287016120dc565b925050604061217a86828701612027565b9150509250925092565b60006020828403121561219a57612199611e8f565b5b60006121a8848285016120dc565b91505092915050565b6121ba81612006565b82525050565b60006020820190506121d560008301846121b1565b92915050565b6121e481611f1e565b81146121ef57600080fd5b50565b600081359050612201816121db565b92915050565b6000806040838503121561221e5761221d611e8f565b5b600061222c858286016120dc565b925050602061223d858286016121f2565b9150509250929050565b600080fd5b600080fd5b7f4e487b7100000000000000000000000000000000000000000000000000000000600052604160045260246000fd5b61228982611f9a565b810181811067ffffffffffffffff821117156122a8576122a7612251565b5b80604052505050565b60006122bb611e85565b90506122c78282612280565b919050565b600067ffffffffffffffff8211156122e7576122e6612251565b5b6122f082611f9a565b9050602081019050919050565b82818337600083830152505050565b600061231f61231a846122cc565b6122b1565b90508281526020810184848401111561233b5761233a61224c565b5b6123468482856122fd565b509392505050565b600082601f83011261236357612362612247565b5b813561237384826020860161230c565b91505092915050565b6000806000806080858703121561239657612395611e8f565b5b60006123a4878288016120dc565b94505060206123b5878288016120dc565b93505060406123c687828801612027565b925050606085013567ffffffffffffffff8111156123e7576123e6611e94565b5b6123f38782880161234e565b91505092959194509250565b6000806040838503121561241657612415611e8f565b5b6000612424858286016120dc565b9250506020612435858286016120dc565b9150509250929050565b7f4e487b7100000000000000000000000000000000000000000000000000000000600052602260045260246000fd5b6000600282049050600182168061248657607f821691505b6020821081036124995761249861243f565b5b50919050565b7f4552433732313a20617070726f76616c20746f2063757272656e74206f776e6560008201527f7200000000000000000000000000000000000000000000000000000000000000602082015250565b60006124fb602183611f5f565b91506125068261249f565b604082019050919050565b6000602082019050818103600083015261252a816124ee565b9050919050565b7f4552433732313a20617070726f76652063616c6c6572206973206e6f7420746f60008201527f6b656e206f776e6572206f7220617070726f76656420666f7220616c6c000000602082015250565b600061258d603d83611f5f565b915061259882612531565b604082019050919050565b600060208201905081810360008301526125bc81612580565b9050919050565b7f496e73756666696369656e74207061796d656e74000000000000000000000000600082015250565b60006125f9601483611f5f565b9150612604826125c3565b602082019050919050565b60006020820190508181036000830152612628816125ec565b9050919050565b7f4e487b7100000000000000000000000000000000000000000000000000000000600052601160045260246000fd5b600061266982612006565b91507fffffffffffffffffffffffffffffffffffffffffffffffffffffffffffffffff820361269b5761269a61262f565b5b600182019050919050565b7f4552433732313a2063616c6c6572206973206e6f7420746f6b656e206f776e6560008201527f72206f7220617070726f76656400000000000000000000000000000000000000602082015250565b6000612702602d83611f5f565b915061270d826126a6565b604082019050919050565b60006020820190508181036000830152612731816126f5565b9050919050565b7f4552433732313a20696e76616c696420746f6b656e2049440000000000000000600082015250565b600061276e601883611f5f565b915061277982612738565b602082019050919050565b6000602082019050818103600083015261279d81612761565b9050919050565b7f4552433732313a2061646472657373207a65726f206973206e6f74206120766160008201527f6c6964206f776e65720000000000000000000000000000000000000000000000602082015250565b6000612800602983611f5f565b915061280b826127a4565b604082019050919050565b6000602082019050818103600083015261282f816127f3565b9050919050565b600081905092915050565b600061284c82611f54565b6128568185612836565b9350612866818560208601611f70565b80840191505092915050565b600061287e8285612841565b915061288a8284612841565b91508190509392505050565b7f4f776e61626c653a206e6577206f776e657220697320746865207a65726f206160008201527f6464726573730000000000000000000000000000000000000000000000000000602082015250565b60006128f2602683611f5f565b91506128fd82612896565b604082019050919050565b60006020820190508181036000830152612921816128e5565b9050919050565b7f45524337323155524953746f726167653a2055524920736574206f66206e6f6e60008201527f6578697374656e7420746f6b656e000000000000000000000000000000000000602082015250565b6000612984602e83611f5f565b915061298f82612928565b604082019050919050565b600060208201905081810360008301526129b381612977565b9050919050565b60008190508160005260206000209050919050565b60006020601f8301049050919050565b600082821b905092915050565b600060088302612a1c7fffffffffffffffffffffffffffffffffffffffffffffffffffffffffffffffff826129df565b612a2686836129df565b95508019841693508086168417925050509392505050565b6000819050919050565b6000612a63612a5e612a5984612006565b612a3e565b612006565b9050919050565b6000819050919050565b612a7d83612a48565b612a91612a8982612a6a565b8484546129ec565b825550505050565b600090565b612aa6612a99565b612ab1818484612a74565b505050565b5b81811015612ad557612aca600082612a9e565b600181019050612ab7565b5050565b601f821115612b1a57612aeb816129ba565b612af4846129cf565b81016020851015612b03578190505b612b17612b0f856129cf565b830182612ab6565b50505b505050565b600082821c905092915050565b6000612b3d60001984600802612b1f565b1980831691505092915050565b6000612b568383612b2c565b9150826002028217905092915050565b612b6f82611f54565b67ffffffffffffffff811115612b8857612b87612251565b5b612b92825461246e565b612b9d828285612ad9565b600060209050601f831160018114612bd05760008415612bbe578287015190505b612bc88582612b4a565b865550612c30565b601f198416612bde866129ba565b60005b82811015612c0657848901518255600182019150602085019450602081019050612be1565b86831015612c235784890151612c1f601f891682612b2c565b8355505b6001600288020188555050505b505050505050565b7f4552433732313a207472616e736665722066726f6d20696e636f72726563742060008201527f6f776e6572000000000000000000000000000000000000000000000000000000602082015250565b6000612c94602583611f5f565b9150612c9f82612c38565b604082019050919050565b60006020820190508181036000830152612cc381612c87565b9050919050565b7f4552433732313a207472616e7366657220746f20746865207a65726f2061646460008201527f7265737300000000000000000000000000000000000000000000000000000000602082015250565b6000612d26602483611f5f565b9150612d3182612cca565b604082019050919050565b60006020820190508181036000830152612d5581612d19565b9050919050565b7f4f776e61626c653a2063616c6c6572206973206e6f7420746865206f776e6572600082015250565b6000612d92602083611f5f565b9150612d9d82612d5c565b602082019050919050565b60006020820190508181036000830152612dc181612d85565b9050919050565b7f4552433732313a20617070726f766520746f2063616c6c657200000000000000600082015250565b6000612dfe601983611f5f565b9150612e0982612dc8565b602082019050919050565b60006020820190508181036000830152612e2d81612df1565b9050919050565b7f4552433732313a207472616e7366657220746f206e6f6e20455243373231526560008201527f63656976657220696d706c656d656e7465720000000000000000000000000000602082015250565b6000612e90603283611f5f565b9150612e9b82612e34565b604082019050919050565b60006020820190508181036000830152612ebf81612e83565b9050919050565b600081519050919050565b600082825260208201905092915050565b6000612eed82612ec6565b612ef78185612ed1565b9350612f07818560208601611f70565b612f1081611f9a565b840191505092915050565b6000608082019050612f30600083018761209b565b612f3d602083018661209b565b612f4a60408301856121b1565b8181036060830152612f5c8184612ee2565b905095945050505050565b600081519050612f7681611ec5565b92915050565b600060208284031215612f9257612f91611e8f565b5b6000612fa084828501612f67565b91505092915050565b7f4e487b7100000000000000000000000000000000000000000000000000000000600052601260045260246000fd5b7f4552433732313a206d696e7420746f20746865207a65726f2061646472657373600082015250565b600061300e602083611f5f565b915061301982612fd8565b602082019050919050565b6000602082019050818103600083015261303d81613001565b9050919050565b7f4552433732313a20746f6b656e20616c7265616479206d696e74656400000000600082015250565b600061307a601c83611f5f565b915061308582613044565b602082019050919050565b600060208201905081810360008301526130a98161306d565b9050919050565b7f4e487b7100000000000000000000000000000000000000000000000000000000600052605160045260246000fdfe697066733a2f2f516d574e6666366b653366396e62724c64577244313261574d634a326671423177344c70464a5350473172363361a2646970667358221220eea5ff702f28b834fe30547927079c840f30114432f69d6a64477ec562a0420564736f6c63430008110033",
    "linkReferences": {},
    "deployedLinkReferences": {}
}